:020000040800F2
:10000000986C00209D0100082D2F0008F1240008A5
:10001000292F0008010800082150000800000000F6
:100020000000000000000000000000005135000842
:100030001508000800000000612F00088135000845
:10004000B7010008B7010008B7010008B7010008B0
:10005000B7010008B7010008B7010008B7010008A0
:10006000B7010008B7010008B7010008B701000890
:10007000B7010008B7010008B7010008050800082B
:10008000B7010008B7010008B7010008B701000870
:10009000B7010008B7010008B7010008B701000860
:1000A000B7010008B7010008B7010008B701000850
:1000B000B7010008B7010008B7010008B701000840
:1000C000B7010008B7010008B7010008B701000830
:1000D000B701000811500008B7010008B701000877
:1000E000B7010008B7010008B7010008B701000810
:1000F000B7010008B7010008B7010008B701000800
:10010000B7010008B7010008B7010008B7010008EF
:10011000B7010008B7010008313600084136000871
:10012000B7010008B7010008B7010008B7010008CF
:10013000B7010008B7010008B7010008B7010008BF
:10014000B7010008B7010008B7010008000000006F
:10015000B7010008B7010008B7010008B70100089F
:10016000B7010008B7010008B7010008B70100088F
:10017000B7010008B70100080000000000000000FF
:10018000B7010008B7010008DFF80CD000F0B6FA9C
:1001900000480047C1660008986C00200648804768
:1001A00006480047FEE7FEE7FEE7FEE7FEE7FEE75C
:1001B000FEE7FEE7FEE7FEE71D36000889010008BE
:1001C0002DE9F05F0546002092469B46884606468C
:1001D000814640241BE0284641464746224600F01F
:1001E000BAF853465A46C01A914110D311461846E0
:1001F000224600F0A1F82D1A67EB01084F4622466F
:100200000120002100F098F817EB00094E41201E54
:10021000A4F10104DFDC484631462A46434600F09B
:1002200000B830BCBDE8C09F2DE9F0410024061B9A
:10023000254671F1000605DA01240027D0EB0700FE
:1002400067EB0101161E73F1000605DA0027D2EBF9
:100250000702012567EB0303FFF7B2FF86460E4650
:1002600017469C46AC4204D00025D0EB050E65EB4A
:10027000010624B10020D2EB000760EB030C7046AE
:1002800031463A466346BDE8F08140EA01039B07E8
:1002900003D009E008C9121F08C0042AFAD203E0FB
:1002A00011F8013B00F8013B521EF9D27047D2B25F
:1002B00001E000F8012B491EFBD270470022F6E74F
:1002C00010B513460A4604461946FFF7F0FF2046CC
:1002D00010BD10B5044604E00B7800F8013B03B1F3
:1002E000491C521EF8D2204610BDCAB2401E10F85A
:1002F000011F8A4202D00029F9D100207047421C18
:1003000010F8011B0029FBD1801A704730B50B464D
:10031000014600202022012409E021FA02F59D4235
:1003200005D303FA02F5491B04FA02F52844151E09
:10033000A2F10102F1DC30BD202A04DB203A00FAF0
:1003400002F1002070479140C2F1200320FA03F32C
:10035000194390407047202A04DB203A21FA02F02A
:100360000021704721FA02F3D040C2F120029140EF
:100370000843194670472DE9FE4F804681EA030085
:10038000C00F0C46009021F0004123F00045B8EB6F
:100390000200A94105D24046214690461C460B4624
:1003A000024623F00040104347D0270DC7F30A0050
:1003B000C3F30A510290401A019040286BDAC3F34C
:1003C000130040F4801B0098924620B10023D2EB2A
:1003D000030A63EB0B0B01985946C0F140025046EB
:1003E000FFF7AAFF06460D4650465946019A00F00F
:1003F00097F910EB08006141002487EA115284EA62
:10040000E7731A4340D0009A62B3019A012A4FEA77
:10041000075215DC001B61EB02014FF0004202EABB
:100420000752CDE90042001C41F5801132462B46AF
:1004300000F097F903B000F045B840462146F9E7CF
:10044000001B61EB0201001C41F5801300185B41A9
:100450002018A2F5001747EB030140EAD570B61942
:100460006D4111E06D084FEA360645EAC0754FEA66
:100470000752001B61EB0201001C41F58011490885
:100480004FEA30000019514132462B4603B000F0CC
:100490001CB800F057B90098012240000023D0EBAF
:1004A000020263EBE073009821464FEAE074B8EB78
:1004B000000061EB0401E9E783F000435BE781F0B2
:1004C000004158E730BCBDE8C08F30BCBDE8C04F2C
:1004D000FFF7DFBF2DE9FE4F81EA030404F000447B
:1004E00021F0004100944FF0000B23F0004350EA4C
:1004F00001045ED052EA03045BD0C3F30A54C1F393
:100500000A552C44A4F2F3340194A0FB0254C1F325
:10051000130141F48011C3F3130343F4801301FB6F
:10052000024400FB034E840A970A44EA815447EAD6
:100530008357A4FB076802958D0A05FB07854FEAE0
:10054000932C04FB0C542705029D4FEA065847EAFA
:100550001637B5EB08056EEB070C870E920E47EACF
:10056000811742EA8312A7FB0201B6EB0B0164EB91
:1005700000042B0D43EA0C335E1844EB1C50DA46A2
:100580005146E7FB0201C5F313044FEA0B3343EA7C
:1005900014534FEA0432019C43EA0603A4F10C040D
:1005A0000294009CCDE900B400F0DBF803B000F049
:1005B00003B800200146F9E730BCBDE8C08F2DE943
:1005C000F04D81EA030404F0004B21F0004514468D
:1005D0004FF0000A23F0004150EA050220D054EA0F
:1005E00001021DD0C5F30A570246C5F31303C1F338
:1005F0001300C1F30A5640F4801543F48013A7EBAF
:100600000608101BD64608F2FD3873EB050002D32E
:1006100008F1010801E092185B41B8F1000F03DA1C
:1006200000200146BDE8F08D00204FF48011064601
:1006300084460EE0171B73EB050705D3121B63EB13
:10064000050306434CEA010C49084FEA30009218B2
:100650005B4150EA0107EDD152EA030012D082EA71
:10066000040083EA0501084305D0101BAB4106D204
:100670000122002306E000224FF0004302E06FF069
:10068000010253101AEB06004CEB085110EB0A0064
:1006900041EB0B01BDE8F04D00F054B8C1F30A5234
:1006A000C1F3130140F2FF3341F480119A4202DAA0
:1006B00000200146704740F233439A42A2F233428F
:1006C00002DC5242FFF747BEFFF736BE30B5041ECC
:1006D00071F1000404DB4FF00044404264EB01017F
:1006E000141E73F1000405DB1C464FF00043524218
:1006F00063EB0403994208BF904230BD064C074D9E
:1007000006E0E06840F0010394E8070098471034E1
:10071000AC42F6D3FFF73CFD6094000880940008DB
:10072000202A06DBCB17203A41FA02F043EAE073B5
:1007300006E041FA02F3D040C2F1200291400843A2
:100740001946704710B5141E73F1000408DA401CF6
:1007500041F1000192185B411A4301D120F00100E0
:1007600010BD2DE9F04D92469B4611B1B1FA81F2D0
:1007700002E0B0FA80F220329046FFF7DDFD044639
:100780000F4640EA0A0041EA0B0153465A46084325
:1007900013D0114653EA010019D0C8F14002504667
:1007A000FFF7D9FD05460E46504659464246FFF72B
:1007B000C3FD084305D0012004E020463946BDE8CA
:1007C000F08D0020054346EAE0762C4337430A9833
:1007D0006305E40AA0EB08000022FD0A44EA47543E
:1007E0000A3002D500200146E9E7010510196941E8
:1007F000DDE9084500196941BDE8F04DA2E70000B8
:10080000FEE7000080B545F62870C2F2000000F057
:100810005BF880BD70470000EFF3108072B600BF38
:10082000FEE70000002804BF0120704790F8251063
:10083000022915D10168D0E910C30A6822F001022B
:100840000A600A6822F00E020A6003F01C0101220D
:1008500002FA01F1CCF80410002180F8252002E012
:100860000421C1630121002280F82420084670473A
:1008700080B590F82510022921D10168D0F838E020
:10088000D0E910C30A68BEF1000F22F001020A602D
:100890000A6822F00E020A6003F01C014FF0010208
:1008A00002FA01F1CCF804104FF0000180F8252085
:1008B00080F8241001D0F0470021084680BD0421B3
:1008C000C1630121084680BDB0B50168D0E910C4FC
:1008D000DCF800500B6804F01C0E5A0713D50422F4
:1008E00002FA0EF414EA05020DD00A68920603D447
:1008F0000A6822F004020A60CCF80440016B002967
:100900003FD08847B0BD9A0720D5022202FA0EF4E4
:1009100014EA05021AD00A68920606D40A6822F080
:100920000A020A60012280F825200422C4F2020291
:1009300002F17C03994288BF02F580621460C16AAB
:10094000002280F82420E1B18847B0BD1A0758BFC3
:10095000B0BD082202FA0EF22A4012D00A6822F034
:100960000E020A60012101FA0EF2CCF80420C163E4
:1009700080F82510416B0022002980F8242018BF40
:100980008847B0BD002804BF0120704770B540F211
:10099000000CC4F2020C02684FF6F8310CF58163CA
:1009A000CBF6FD719A4238BF01F580614CF6CD431C
:1009B0001144CCF6CC43A1FB03136FF003060CF5F6
:1009C000806506EA9303D0E9021E04693CBF002556
:1009D000C4F20205C0E91053022380F825301368E1
:1009E00047F6F075AB4313604EEA010346692343B3
:1009F0003343D0E90665B1F5804F43EA0603066A42
:100A000043EA0503156843EA060343EA0503136056
:100A100016D0D0E910324FF49565416802F01C02FF
:100A20000F26634508BFA8255CF805309640B34300
:100A30004CF805305CF80530914019434CF805102E
:100A400000210122C16380F8252080F82410BDE830
:100A50007040084670470000B0B5044600F0F2F858
:100A6000054640F23C00C2F200000078611C18BF4D
:100A7000044400BF00F0E6F8401BA042FAD3B0BD2A
:100A80002DE9F04F85B00A68002A00F0CF8000F110
:100A90000C03019300F12C0300F1384700934FEA57
:100AA000B72341F600070393C4F600070723002687
:100AB0004FF0000C4FF0010BB84208BF0623029321
:100AC0000BE000BF0A680CF1040C32FA0BF30BF1D7
:100AD000010B06F1020600F0A980ABF10108012329
:100AE00003FA08FE12EA0E0AECD0D1F8049009F0DD
:100AF0000302541E012C12D884680323CF6803FA22
:100B000006F5AC4307FA06F52C4384604468C9F344
:100B1000001524EA0E0405FA08F52C434460032A64
:100B200008D1009DC9F3C0072C6807FA08F724EA2A
:100B30000E0407E0019B03251F688C68B540AF4396
:100B4000B4401D462743022A2F600FD16FF00302E5
:100B500002EA580202440CF01C050F23176A03FA3C
:100B600005F40B69A743AB403B43136202680323C0
:100B70004F68B3409A4307F00303B3401A4317F496
:100B8000403F02609ED041F26003C4F202031A6843
:100B900040F2004442F001021A601A68C4F20104F3
:100BA00002F001020492049A28F003024FF608486A
:100BB0002244CFF6FF7852F808300CF00C070F25CE
:100BC000BD4023EA050E039B029D062B38BF1D4640
:100BD00005FA07F747EA0E0342F80830A2684B68A7
:100BE00042EA0A0740F20C4EDD0258BF22EA0A0729
:100BF000A760C4F2010EDEF800209D0242EA0A0757
:100C000058BF22EA0A07CEF8007062689D0342EAE4
:100C10000A0758BF22EA0A0767602268DB0342EA34
:100C20000A0758BF22EA0A0727604BE705B000F021
:100C300000B830BCBDE8C08F1823002A08BF2823A5
:100C4000C150704746F29810C2F200000068704729
:100C500040F23C0046F29811C2F20000C2F20001DC
:100C600000780A68104408607047000080B50320CF
:100C700000F090F80F2000F009F800281CBF0120B8
:100C800080BD00F059F8002080BD0000B0B586B0EE
:100C900041F25801C4F202010A68044642F02002FF
:100CA0000A60096801A801F02001019101996946D3
:100CB00000F040FB049D002D18BF012500F062FBF1
:100CC0004DF68361A840C4F21B31A0FB01014FF037
:100CD000FF3000EB914146F2200041F20042C2F2A7
:100CE0000000C4F2000240F2E7330025C0E9002111
:100CF000C0E902530561856101F084F80546C0B979
:100D000046F22000C2F2000001F0D0F8054680B99A
:100D1000372000F02BF80F2C0AD83720214600226C
:100D200000F028F840F24000C2F20000046000E049
:100D30000125284606B0B0BD82B041F25800C4F289
:100D40000200816841F001018160816801F00101C8
:100D500001910199016841F080510160006800F043
:100D600080500090009802B07047000080B504F0F9
:100D700059F980BD70B514460D46064604F062F977
:100D80002946224602F0D4F80146304604F062F9C2
:100D900070BD000080B504F06FF980BD47F200011E
:100DA000C4F200010A68B0F5007F02F4C06026D1E9
:100DB000B0F5007F21D00868012262F34A20086064
:100DC00040F20000C2F200000068322358434DF6A2
:100DD0008363C4F21B33A0FB030302EB934000BF09
:100DE0004B69421E824203D213F480601046F7D151
:100DF0004869400544BF0320704700207047B0F5A4
:100E0000806FFAD00868022262F34A20086000204E
:100E10007047000047F20000C4F20000006800F4D0
:100E2000C06070472DE9F04782B00446407841F237
:100E300088070007C4F2020702D44FF0000A35E029
:100E4000606E4FEAB05003280ED84FF0000ADFE87A
:100E500000F002111C17201D002102F0BFF882468D
:100E6000BAF1000F0FD11BE04FF0010ABAF1000FE9
:100E700009D115E004F12000002102F077F9824643
:100E8000BAF1000F0CD0D04612E057F87C0C4FF0AE
:100E9000000A40F4803047F87C0CBAF1000FF2D120
:100EA0003868616E20F44000084338604FF0000855
:100EB0006078C00631D5A06E4FEA306003280CD8A8
:100EC000DFE800F002111C17201D002102F086F857
:100ED0008246BAF1000F0FD119E04FF0010ABAF1C2
:100EE000000F09D113E004F12000002102F03EF9C7
:100EF0008246BAF1000F0AD0D0460EE057F87C0CBB
:100F000040F4803047F87C0CBAF1000FF4D1386817
:100F1000A16E20F0407008433860A078800701D4AB
:100F2000C24665E057F8300C10F080590BD157F8E5
:100F3000300C40F0805047F8300C57F8300C00F07F
:100F400080500190019847F20005C4F2000528681E
:100F500040F480702860FFF775FE06462868C005DB
:100F600006D4FFF76FFE801B0328F7D34FF0030A68
:100F7000BAF1000F33D1B86810F4407012D0D4F831
:100F8000801088420BD0B868B96820F4407041F4F2
:100F90008031B960B96821F48031B960B860C007A8
:100FA00003D111E00020C0070ED0FFF74BFE06462C
:100FB00041F28935B868800706D4FFF743FE801BED
:100FC000A842F7D34FF0030ABAF1000F07D1B8686F
:100FD000D4F8801020F440700843C246B860B9F1DC
:100FE000000F05D157F8300C20F0805047F8300C36
:100FF0002068C10716D181071CD4410722D40107FC
:1010000028D4C1062ED4810634D481053AD44105B2
:1010100040D4410646D401064CD4C10552D4000345
:1010200058D471E03968A26B21F003011143396093
:101030008107E2D53968E26B21F00C011143396078
:101040004107DCD53968226C21F030011143396049
:101050000107D6D53968626C21F0C00111433960AF
:10106000C106D0D53968A26C21F4407111433960B2
:101070008106CAD53968E26C21F4406111433960B8
:101080008105C4D53968E26D21F4402111433960EE
:101090004105BED53968226E21F4401111433960F3
:1010A0004106B8D53968226D21F4405111433960A9
:1010B0000106B2D53968626D21F4404111433960AF
:1010C000C105ACD53968A26D21F4403111433960B6
:1010D000000319D53968E06E21F040610143B0F199
:1010E000806F396009D0B0F1006F0DD157F87C0CDA
:1010F00040F4801047F87C0C06E0201D012101F02F
:101100006DFF002818BF8246A078400719D53968BE
:10111000206F21F040610143B0F1806F396009D048
:10112000B0F1006F0DD157F87C0C40F4801047F8F7
:101130007C0C06E0201D012101F050FF002818BFA3
:1011400082466078400618D53968606F21F04051BA
:101150000143B0F1005F396007D0B0F1805F0CD17E
:10116000201D022101F03AFF04E004F120000221D9
:1011700001F0FCFF002818BF82462068010405D555
:101180003968A26F21F0804111433960C00305D551
:101190003868E16F20F0004008433860504602B0E4
:1011A000BDE8F0872DE9F04381B0002800F0918080
:1011B00042F20008C4F202080446D8F800000D46C6
:1011C00000F0070088420CD2D8F8000020F0070099
:1011D0002843C8F80000D8F8000000F00700A84233
:1011E00077D1206841F208098107C4F202090DD5C0
:1011F000A168D9F8002002F0F002914206D9D9F88E
:10120000002022F0F0021143C9F80010C00756D1A7
:10121000206881070DD5A168D9F8002002F0F002FE
:10122000914206D2D9F8002022F0F0021143C9F809
:101230000010D8F8001001F00701A9420CD9D8F825
:10124000001021F007012943C8F80010D8F8001059
:1012500001F00701A9423CD1410707D5D9F8001098
:10126000E26821F4E0611143C9F80010000708D5D5
:10127000D9F80000216920F4605040EAC100C9F8A3
:10128000000000F0A7F8D9F8001048F2DA02C1F324
:101290000311C0F60002515C40F2000201F01F0190
:1012A00020FA01F140F24000C2F200000068C2F2F0
:1012B00000021160FFF7EAFC01B0BDE8F08360684E
:1012C00058B102282CD003282FD159F8081C8901C5
:1012D00007D4012001B0BDE8F08359F8081C890744
:1012E000F7D5D9F8001021F003010843C9F8000030
:1012F000FFF7A8FC064641F2883700BFD9F8000086
:10130000616800F00C00B0EB810F3FF481AFFFF794
:1013100099FC801BB842F1D9032001B0BDE8F083ED
:1013200059F8081C8903D4D5DBE759F8081C49058E
:10133000CFD5D6E70F22026041F20802C4F20202C2
:10134000136803F003034360136803F0F003836042
:10135000136803F4E063C36012684FF4E06303EAC8
:10136000D202026142F20000C4F20200006800F002
:10137000070008607047000040F20000C2F2000061
:101380000068704780B5FFF7F7FF41F20801C4F22B
:101390000201096848F2EA02C1F30221C0F6000224
:1013A000515C01F01F01C84080BD000080B5FFF70F
:1013B000E3FF41F20801C4F20201096848F2EA02BF
:1013C000C1F3C221C0F60002515C01F01F01C84008
:1013D00080BD000041F20C01C4F2020151F8040C7E
:1013E00010F00C02086805D00C2A40D100F0030070
:1013F00001283CD151F80C0C000703D4D1F8880027
:10140000000A02E051F80C0C000948F2F40300F065
:101410000F00C0F6000353F82030002A184618BF0A
:1014200000200C2A18BF7047086800F0030002284B
:1014300006D0032804BF41F20023C0F27A0303E080
:1014400042F20043C0F2F40308680A68C0F30210D5
:10145000C2F30622096801305A43B2FBF0F0C1F32F
:101460004161022202EB4101B0FBF1F07047042A16
:1014700007D0082A0BD141F200200023C0F27A00E5
:10148000CFE742F200400023C0F2F400C9E7002099
:101490000023C6E72DE9F04381B0002800F0178251
:1014A00041F200060446C4F20206B068F1682278F0
:1014B00000F00C09D00601F003081DD42078C00705
:1014C00000F0EF80B9F1080F45D0B9F10C0F08BF5B
:1014D000B8F1030F3FD06568B5F5A02F00F0BC80D0
:1014E000B5F5803F00F0BC80306820F4803030607B
:1014F000306820F48020B6E0B9F1000F1CD0B9F1BB
:101500000C0F08BFB8F1010F16D0A169306800298F
:1015100078D040F001003060FFF794FB054600BF33
:101520003068800700F18080FFF78CFB401B0228A9
:101530004FF00300F4D912E23068800703D5A069A8
:10154000002800F0C481206A316809070CD4D6F85D
:101550009410090909E03068800340F1A2806068B6
:10156000002840F09E80B2E1316801F0F00188422D
:1015700016D901F0ABFE002840F0A981306840F098
:10158000080030603068D4E9072120F0F0000843FB
:101590003060706820F47F4040EA0220706013E001
:1015A0003168B9F1000F41F008013160316821F074
:1015B000F00141EA000131607168E26921F47F4184
:1015C00041EA0221716041D0FFF704FFB16848F29F
:1015D000DA02C1F30311C0F60002515C40F20002CE
:1015E00001F01F0120FA01F140F24000C2F20000B8
:1015F0000068C2F200021160FFF748FB002840F0CB
:10160000AE815BE720F001003060FFF71BFB054671
:10161000306880077FF552AFFFF714FB401B0228AC
:101620004FF00300F4D99AE1306840F008003060D0
:101630003068D4E9072120F0F0000843306070687A
:1016400020F47F4040EA0220706037E701F03EFE60
:10165000002840F03C81B7E7306840F480203060DB
:10166000306840F480303060FFF7ECFA002D05461A
:1016700014D000BF3068800313D4FFF7E3FA401B97
:1016800064284FF00300F5D969E100BFFFF7DAFAEB
:10169000401B64284FF0030000F261813068800332
:1016A000F4D4207880072CD5B9F1040F1BD0B9F100
:1016B0000C0F08BFB8F1020F15D0E168306800299F
:1016C00000F03C8140F480703060FFF7BBFA0546C3
:1016D000306840050ED4FFF7B5FA401B02284FF0E2
:1016E0000300F5D93BE13068400503D5E0680028E8
:1016F00000F0ED807068216920F0F85040EA016048
:101700007060207800075ED42078400775D4A06A06
:10171000002800F02E81022840F0B980F068E16ACC
:1017200000F003028A4240F0C880226B6FF00F0382
:1017300000F0700103EB0212914240F0BE80616B39
:1017400000F4FE42B2EB012F40F0B780A16B00F431
:101750000032073918BF01218A4240F0AE80E26BA7
:101760000023CFF6E07303EB025200F4C0016FF3E5
:101770001402914240F0A180216C4FF07E4202EBB6
:10178000016100F0C06001F07E41884240F0958028
:101790003068800100F1ED80306840F0807030608A
:1017A000F06840F08070F060FFF74CFA0446306853
:1017B000800100F1DE80FFF745FA001B02284FF0A0
:1017C0000300F4D9CBE06169D6F8940000294AD02F
:1017D00040F00100C6F89400FFF734FA054600BF58
:1017E000D6F8940080078FD4FFF72CFA401B02280C
:1017F000F6D9032001B0BDE8F083B06D10F0805839
:1018000008D1B06D40F08050B065B06D00F08050F0
:101810000090009847F20007C4F200073868C0053E
:1018200011D4386840F480703860FFF70BFA054631
:101830003868C00507D4FFF705FA401B02284FF0AF
:101840000300F5D98BE0A568052D44D0012D48D0C3
:10185000D6F8900020F00100C6F89000D6F890006D
:1018600020F0040041E020F00100C6F89400FFF7EA
:10187000E9F90546D6F8940080077FF545AFFFF7F4
:10188000E1F9401B02284FF00300F3D967E0B9F1FA
:101890000C0F1CD0306820F080703060FFF7D2F958
:1018A000044600BF306880015CD5FFF7CBF9001B10
:1018B00002284FF00300F5D951E0B9F10C0F06D022
:1018C000306840015CBF30685FEAC00055D5012038
:1018D00001B0BDE8F083D6F8900040F00400C6F8EF
:1018E0009000D6F8900040F00100C6F89000FFF795
:1018F000A9F9002D054641F2883712D0D6F890009C
:10190000800712D4FFF79EF9401BB8424FF0030046
:10191000F4D924E0FFF796F9401BB8424FF00300DA
:101920001DD8D6F890008007F4D4B8F1000F7FF4EA
:10193000EEAEB06D20F08050B065E8E620F4807027
:101940003060FFF77FF90546306840057FF5D9AE76
:10195000FFF778F9401B02284FF00300F4D901B0DB
:10196000BDE8F083F0684FF6FC71CFF6EE610840F9
:10197000F060002001B0BDE8F083306820F0807096
:101980003060FFF75FF905463068800107D5FFF743
:1019900059F9401B02284FF00300F5D9DFE7F06842
:1019A00048F28C01CFF69D1104F12C0700EA010CDE
:1019B0008ECFD4E90F546FF00F0040F2000E00EB11
:1019C0000210CFF6E07E41EA0C010EEB05554FF018
:1019D0007E4208436FF3140502EB046240EA0320E1
:1019E00002F07E420EF5F014284304EA4737104314
:1019F0003843F060306840F080703060F06840F04C
:101A00008070F060FFF71EF9044630688001B0D4A2
:101A1000FFF718F9001B02284FF00300F5D99EE7E5
:101A2000002804BF01207047B0B50446406A20B1C9
:101A30000020206104F1140005E06068B0F5827FA9
:101A400003D004F11C00002101600025A56294F878
:101A50005D0020B9204684F85C5000F04FF8022069
:101A600084F85D002068D4F80CE00268BEF5E06FF1
:101A700022F0400202604EF4006298BF0125B2F5E8
:101A8000706F1CBF0023A3624FEA053CD4E9013507
:101A9000D4E9042103F4827305F404452B4402F0D5
:101AA00002021A44A36901F00101E569114403F43B
:101AB0000072114405F03802256A114405F08002D5
:101AC000A56A114405F40052114301600421626AC1
:101AD0000EF4706501EA1341636B45EA0C0502F0F0
:101AE0001002294303F00803114319434160002009
:101AF0000121206684F85D10B0BD000080B586B07D
:101B0000006843F20002C4F2010200219042CDE9D4
:101B10000411CDE90211019101D006B080BD41F25E
:101B20004C00C4F20200426942F4805242614269B0
:101B300002F480520092009A026842F001020260B0
:101B4000006800F0010000900098A02001900220A1
:101B5000CDE90201032004900520059001A94FF072
:101B60009040FEF78DFF06B080BD00002DE9F041EA
:101B700082B01D4616460F460446FFF763F894F8F8
:101B80005D1001290DD18046002F4FF0010018BFD4
:101B9000002E02D102B0BDE8F08194F85C0001286B
:101BA00003D1022002B0BDE8F081012084F85C007E
:101BB000032084F85D0000202066A763A687E687DF
:101BC0002064A4F84400A4F84600A168C4E9130006
:101BD000B1F5004F08D12068016821F04001016093
:101BE000016841F48041016020680168490603D41E
:101BF000016841F0400101606168731EE268B1FA5A
:101C000081F1B3FA83F349095B09B2F5E06F41EA68
:101C100003012ED939B1A16B0988C160B81CA0633A
:101C2000E08F0138E087E08F002863D06E1C0AE067
:101C3000A16B31F8022BC260A163E08F0138E0870D
:101C4000E08F002856D0206881688907F0D4FEF71D
:101C5000F9FF002EF4D0A0EB0800A842F0D3012039
:101C600084F85D00002084F85C00032002B0BDE829
:101C7000F08100294FF6FE7112D0E28F022A06D3BE
:101C8000A26B1288C260B81C4FF6FE7204E03A786C
:101C90000273A06B4A1C0130A063E08F1044E08700
:101CA000E08F38B36E1C4F1C0CE0A16B09780173F8
:101CB00001203946A26B1044A063E08F0844E087FE
:101CC000E08FB8B120688168890709D4FEF7BAFFB0
:101CD000002EF5D0A0EB0800A842F1D3BFE700BF6B
:101CE000E18F0229E1D3A16B0988C16002204FF680
:101CF000FE71DFE720462946424601F02FFB00280F
:101D00001CBF20202066A06838B900200190206800
:101D1000C1680191806801900198012084F85D00FC
:101D2000002084F85C00206E002818BF012002B05B
:101D3000BDE8F08170470000704700007047000068
:101D400010B590F83C20012A4FF0020257D0012331
:101D500080F83C3080F83D20026843F2004C536824
:101D6000D2F808E0C4F2010C624505D042F6004406
:101D7000C4F20104A24203D14C6823F4700323434C
:101D80000C6823F07003234340F6FF34C4F20004D0
:101D9000A242536010DD43F2FF33C4F201039A42C2
:101DA0001ADC40F60043C4F200039A421CD042F60B
:101DB0000043C4F201030CE0B2F1804F14D040F2B2
:101DC0000043C4F200039A420ED040F60003C4F26E
:101DD00000039A4208D00CE044F20003C4F201036D
:101DE0009A4201D0624504D189682EF080031943DC
:101DF00091600121002280F83D1080F83C201046BF
:101E000010BD0000002804BF0120704710B5044633
:101E100090F83D0028B9002084F83C00204600F0EE
:101E200023F8022084F83D002068211D01F010FCF9
:101E3000012084F8480084F83E0084F83F0084F8CC
:101E4000400084F8410084F8420084F8430084F89C
:101E5000440084F8450084F8460084F8470084F87C
:101E60003D00002010BD000080B582B0006841F246
:101E70000001C4F20001884201D002B080BD41F2ED
:101E80005800C4F202000168002241F01001016014
:101E90000068042100F01000019001983620FEF740
:101EA00069FF3620FEF762FF02B080BD90F83D105A
:101EB00001291CBF01207047022180F83D100168F4
:101EC00040F6FF32C868C4F20002914240F00100BF
:101ED000C8600EDD43F2FF30C4F20100814218DC1D
:101EE00040F60040C4F2000081421ED042F600409D
:101EF00017E0B1F1804F18D040F20040C4F200006A
:101F0000814212D040F60000C4F2000081420CD0A1
:101F10001EE044F20000C4F20100814205D043F209
:101F20000040C4F20100814212D188680722C0F249
:101F300001020240062A4FF000000ED0B2F5803FA9
:101F400008BF7047086840F0010008600020704733
:101F5000086840F0010008600020704770470000EA
:101F6000F0B581B004460068C768066906EA07054F
:101F7000A90727D4680756D428076CD4E80600F1CF
:101F80008280E80706D020686FF0010101612046D9
:101F900000F098F817F0800718BF16F4025006D02A
:101FA00020686FF4025101612046FFF7C5FE002F43
:101FB00018BF16F4807011D1680618D4A8061FD473
:101FC00001B0F0BD6FF0020101610121217780694C
:101FD00080071ED02046FFF7C1FF20E020686FF485
:101FE000807101612046FFF7A5FE6806E6D52068EE
:101FF0006FF040010161204600F070F8A806DFD5BF
:1020000020686FF0200101612046FFF797FE01B0C4
:10201000F0BD204600F052F8204600F051F80020B4
:1020200020776807A8D520686FF0040101610221BC
:102030002177806910F4407F03D02046FFF78EFFA0
:1020400005E0204600F03AF8204600F039F800207C
:102050002077280792D520686FF0080101610421DC
:102060002177C069800703D02046FFF777FF05E09E
:10207000204600F023F8204600F022F800202077C8
:10208000E8067FF57EAF20686FF01001016108213E
:102090002177C06910F4407F03D02046FFF75EFF30
:1020A00005E0204600F00AF8204600F009F800207C
:1020B0002077E8077FF467AF6CE700007047000007
:1020C0007047000080B5006841F20041C4F2000191
:1020D000884208BFFEF7BCFD80BD000070470000CD
:1020E000704700007047000070470000B0B504461C
:1020F000006840F62F03C169026885680B40202BF9
:1021000002F0200E07D1BEF1000F04D0A16E99B3EA
:1021100020468847B0BD40F60F03194213D040F265
:102120002013C0F2004305F0010C134013EB0C0325
:1021300009D0CB0718BF12F4807340F0A7808B073B
:1021400000F1AE80B7E0D4F860C00A40D3063CD5B9
:10215000BCF1010F39D1102101628068400640D4E2
:10216000B4F85800B4F85A10B4F85A20002A1CBF2A
:10217000401A5FEA004101D1B0BD00BF216851E8BB
:10218000001F226821F4907142E80013002BF5D162
:10219000216851E8021F226821F0010142E8021380
:1021A000002BF5D12021C4F8801000212166A16602
:1021B000216851E8001F226821F0100142E8001355
:1021C000002BF5D10221616654E0C90254D515F403
:1021D000800151D04FF4801101622046FFF782FF49
:1021E000B0BD606F006841688AB2002A00F0C48008
:1021F000B4F858309A4280F0BF80A4F85A100068B2
:10220000800630D4206850E8000F216820F48070E8
:1022100041E80002002AF5D1206850E8020F216849
:1022200020F0010041E80202002AF5D1206850E8C0
:10223000020F216820F0400041E80202002AF5D197
:102240002020C4F880000020206600BF206850E8ED
:10225000000F216820F0100041E80002002AF5D1AB
:10226000606FFEF7DFFA02206066B4F85800B4F839
:102270005A10401A81B28AE0100600F19780500689
:1022800058BFB0BD204601F07DFBB0BD0123036205
:10229000D4F8843043F00103C4F884308B070AD5A6
:1022A000BCF1000F07D002230362D4F8843043F05E
:1022B0000403C4F884304B070AD5BCF1000F07D0E3
:1022C00004230362D4F8843043F00203C4F884305A
:1022D0000B070AD55CEA0E0307D008230362D4F883
:1022E000843043F00803C4F884300B050BD512F09A
:1022F000806308D04FF400630362D4F8840040F098
:102300002000C4F88400D4F8840000283FF434AFDF
:1023100002EA0100800603D5A16E09B12046884774
:102320002068D4F88410806801F0280100F0400093
:10233000401834D0204601F0FBFA2068806840063F
:1023400029D500BF206850E8020F216820F0400026
:1023500041E80202002AF5D1606FE0B143F6251191
:10236000C0F600018163FEF783FA00283FF404AF52
:10237000606F816B8847B0BDB4F8581091427FF40C
:10238000FBAE006880067FF5F7AE0220606620464F
:10239000FFF7A6FEB0BD2046FFF7A6FEB0BD204663
:1023A000FFF7A2FE0020C4F88400B0BDE16E002952
:1023B0007FF4AEAEE0E6000010B5C8B10446C06FD1
:1023C00028B9002084F87800204600F025F8242061
:1023D000E0672068616A026822F00102026011B1C0
:1023E000204601F0CDF9204601F0E0FA012801D1A4
:1023F000012010BD2068416821F49041416081684E
:1024000021F02A018160016841F00101016020464C
:1024100001F02AFA10BD0000F0B5A7B0044600256F
:1024200001A884212695CDE92455CDE92255FDF753
:1024300045FF206843F60001C4F20101884201D043
:1024400027B0F0BD0120019001A80F95FEF7EAFC2E
:10245000002818BFFEF7E0F941F24C00C4F2020078
:102460004169022641F4804141614169002701F43C
:10247000804100910099016841F00101016000680C
:1024800022A900F00100009000984FF4C060229053
:1024900003202590072026904FF090402396249704
:1024A000FEF7EEFA45F628755820C2F20005C4F290
:1024B00002008021202285E8C1002846C5E9037179
:1024C000C5E90577C5E90727FEF75CFA002818BFBC
:1024D000FEF7A2F92520052100226567AC62FEF710
:1024E00049FC2520FEF742FC27B0F0BD70470000F4
:1024F000FEE70000F0B581B007462A201C461546CD
:102500000E4600F0C1FB384600F092FB284600F072
:102510008FFB2B2000F0B8FB06F10C0080B200F01E
:1025200087FB04F10C0080B200F082FB2C2000F04D
:10253000ABFB01B0F0BD00002DE9F04182B0D3B398
:102540001646C2B3089FB7B31D4603FB06F48219B3
:102550000B44013A013B40F2004892B29BB2C4F6F0
:102560000008FFF7C7FF08F5806010210122FEF781
:1025700063FB404604210022FEF75EFBB4B105FB7D
:1025800006F445F67075023FC2F200050DF106062D
:1025900037F8020F314600BA000CADF806002846A5
:1025A0000222FF23FFF7E2FA013CF1D14046042169
:1025B0000122FEF741FB02B0BDE8F08110B540F208
:1025C0000044C4F60004204602210122FEF734FB39
:1025D0003220FEF741FA204602210022FEF72CFBB2
:1025E0003220FEF739FA204602210122FEF724FBB1
:1025F0007820FEF731FA4FF0904040210122FEF79B
:102600001BFBFF2000F040FBA52000F029FB9A20D7
:1026100000F03AFB082000F023FB9B2000F034FB85
:10262000082000F01DFB9C2000F02EFBB02000F0E5
:1026300017FB9D2000F028FB162000F011FB9E20C8
:1026400000F022FBC42000F00BFB8F2000F01CFBED
:10265000552000F005FB042000F002FB842000F070
:1026600013FB902000F0FCFA832000F00DFB7B2090
:1026700000F0F6FA852000F007FB332000F0F0FAB6
:10268000602000F001FB002000F0EAFA702000F06A
:10269000FBFA002000F0E4FA612000F0F5FA0220D5
:1026A00000F0DEFA712000F0EFFA022000F0D8FA14
:1026B000622000F0E9FA042000F0D2FA722000F063
:1026C000E3FA042000F0CCFA6C2000F0DDFA2920B7
:1026D00000F0C6FA7C2000F0D7FA292000F0C0FAFA
:1026E0006D2000F0D1FA312000F0BAFA7D2000F020
:1026F000CBFA312000F0B4FA6E2000F0C5FA0F20BA
:1027000000F0AEFA7E2000F0BFFA0F2000F0A8FA29
:10271000662000F0B9FA212000F0A2FA762000F03D
:10272000B3FA212000F09CFA682000F0ADFA3A20BC
:1027300000F096FA782000F0A7FA3A2000F090FA1C
:10274000632000F0A1FA072000F08AFA732000F05D
:102750009BFA072000F084FA642000F095FA052027
:1027600000F07EFA742000F08FFA052000F078FA6D
:10277000652000F089FA022000F072FA752000F05E
:1027800083FA022000F06CFA672000F07DFA232023
:1027900000F066FA772000F077FA232000F060FA64
:1027A000692000F071FA082000F05AFA792000F050
:1027B0006BFA082000F054FA6A2000F065FA132042
:1027C00000F04EFA7A2000F05FFA132000F048FA89
:1027D0006B2000F059FA132000F042FA7B2000F041
:1027E00053FA132000F03CFA6F2000F04DFA00205D
:1027F00000F036FA7F2000F047FA002000F030FAAF
:10280000502000F041FA002000F02AFA522000F097
:102810003BFAD62000F024FA532000F035FA0820C5
:1028200000F01EFA542000F02FFA082000F018FAE9
:10283000552000F029FA1E2000F012FA562000F070
:1028400023FA1C2000F00CFAA02000F01DFA2B2027
:1028500000F006FA242000F003FA002000F000FA4D
:10286000A12000F011FA872000F0FAF9A22000F070
:102870000BFA862000F0F4F9A52000F005FA0020FC
:1028800000F0EEF9A62000F0FFF9002000F0E8F9D2
:10289000A72000F0F9F9002000F0E2F9A82000F0EC
:1028A000F3F9362000F0DCF9A92000F0EDF97E20E4
:1028B00000F0D6F9AA2000F0E7F97E2000F0D0F968
:1028C000B92000F0E1F9852000F0CAF9BA2000F043
:1028D000DBF9842000F0C4F9BB2000F0D5F9832097
:1028E00000F0BEF9BC2000F0CFF9822000F0B8F96A
:1028F000BD2000F0C9F9812000F0B2F9BE2000F03F
:10290000C3F9802000F0ACF9BF2000F0BDF9012030
:1029100000F0A6F9C02000F0B7F9022000F0A0F9FD
:10292000C12000F0B1F9002000F09AF9C22000F0B7
:10293000ABF9002000F094F9C32000F0A5F90020C5
:1029400000F08EF9C42000F09FF9332000F088F9E0
:10295000C52000F099F97E2000F082F9C62000F031
:1029600093F97E2000F07CF9C82000F08DF9332027
:1029700000F076F9332000F073F9C92000F084F9F3
:10298000682000F06DF9CA2000F07EF9692000F09F
:1029900067F9CB2000F078F96A2000F061F9CC20CB
:1029A00000F072F96B2000F05BF9CD2000F06CF9BB
:1029B000332000F055F9332000F052F9CE2000F01A
:1029C00063F96C2000F04CF9CF2000F05DF96D2028
:1029D00000F046F9D02000F057F96E2000F040F9E1
:1029E000D12000F051F96F2000F03AF9AB2000F04F
:1029F0004BF9032000F034F9672000F031F9AC20E6
:102A000000F042F9032000F02BF96B2000F028F9C8
:102A1000AD2000F039F9032000F022F9682000F021
:102A20001FF9AE2000F030F9032000F019F96C20F6
:102A300000F016F9B32000F027F9002000F010F99B
:102A4000B42000F021F9002000F00AF9B52000F0D0
:102A50001BF9002000F004F9B62000F015F932202F
:102A600000F0FEF8B72000F00FF97E2000F0F8F833
:102A7000B82000F009F97E2000F0F2F8E02000F024
:102A800003F9002000F0ECF8E12000F0FDF803204D
:102A900000F0E6F80F2000F0E3F8E22000F0F4F890
:102AA000042000F0DDF8E32000F0EEF8012000F053
:102AB000D7F8E42000F0E8F80E2000F0D1F8E52087
:102AC00000F0E2F8012000F0CBF8E62000F0DCF89E
:102AD000192000F0C5F8E72000F0D6F8102000F02B
:102AE000BFF8E82000F0D0F8102000F0B9F8EA2094
:102AF00000F0CAF8122000F0B3F8EB2000F0C4F8A0
:102B0000D02000F0ADF8EC2000F0BEF8042000F07A
:102B1000A7F8ED2000F0B8F8072000F0A1F8EE20AB
:102B200000F0B2F8072000F09BF8EF2000F0ACF8BE
:102B3000092000F095F8F02000F0A6F8D02000F071
:102B40008FF8F12000F0A0F80E2000F089F817208F
:102B500000F086F8F22000F097F82C2000F080F8C2
:102B60001B2000F07DF80B2000F07AF8202000F008
:102B700077F8E92000F088F8292000F071F8EC20BF
:102B800000F082F8042000F06BF8352000F07CF8AB
:102B9000002000F065F8442000F076F8002000F0F6
:102BA0005FF8102000F05CF8462000F06DF810206F
:102BB00000F056F8FF2000F067F8002000F050F811
:102BC0003A2000F061F8052000F04AF8362000F0C5
:102BD0005BF8A02000F044F8112000F055F8DC204C
:102BE000FDF73AFF292000F04FF8C820FDF734FF29
:102BF00010BD000010B582B040F20044C4F60004DD
:102C00008DF80700204604210022FEF715F845F64E
:102C10007070C2F200000DF107010122FF23FEF7E0
:102C2000A5FF204604210122FEF706F802B010BDE0
:102C3000B0B540F60005C4F600050446284610214C
:102C40000122FDF7F9FF200AFFF7D4FFE0B2FFF7FA
:102C5000D1FF284610210122FDF7EEFFB0BD000094
:102C6000B0B540F60005C4F600050446284610211C
:102C70000122FDF7E1FF2046FFF7BCFF28461021A7
:102C80000122FDF7D9FFB0BDB0B540F60005C4F68E
:102C900000050446284610210022FDF7CDFF2046FE
:102CA000FFF7A8FF284610210122FDF7C5FFB0BDA0
:102CB00080B582B041F24800C4F2020001680022EF
:102CC00041F0010101600068052100F00100019060
:102CD00001980F20FEF74EF80F20FEF747F802B0DC
:102CE00080BD000080B502F02FF9012818BFFDF764
:102CF00093FD80BD2DE9F04F87B0002741F24C00D5
:102D00000697CDE90477CDE90277C4F202000168A5
:102D100040F6000A41F0100101600168C4F6000AA3
:102D200001F01001019101990168002241F00401B4
:102D3000016001684FF0080901F004010191019957
:102D4000016841F080010160016801F0800101919A
:102D50000199016841F001010160016801F0010180
:102D600001910199016841F002010160016801F0DF
:102D7000020101910199016841F0080101600068B8
:102D8000082100F00800019001985046FDF754FF1B
:102D90004FF09040402100224FF0400BFDF74CFFD8
:102DA00050461021012210240125FDF745FFAAF508
:102DB0008068404606210122FDF73EFF02AE0AF57B
:102DC00000603146CDE902B70495FDF759FE4FF496
:102DD0000150CDE90207504631460495FDF750FEFB
:102DE00050463146CDE90295CDE90477FDF748FE1E
:102DF0000420CDE902074FF0904031460495FDF7DD
:102E00003FFE4FF090403146CDE902B5CDE9047761
:102E1000FDF736FE02A8B0C00224504631460594A4
:102E2000FDF72EFE062002A9A1C1404631460594B9
:102E3000FDF726FE07B000F000B830BCBDE8C08F3B
:102E4000B0B545F6707043F2000EC2F20000C4F255
:102E5000010E4FF482724FF400434FF4E06C0021F6
:102E60004FF400740825C0E900E20722C0E9023CE3
:102E7000C0E90411C0E90645C0E90811C0E90A1219
:102E8000C0E90C15FEF7CCFD002818BFFDF7C4FC07
:102E9000B0BD000010B584B045F6D47041F2000119
:102EA000C2F20000C4F2000100244F2240F2E733D6
:102EB00080E8160080210394CDE90144C36081615C
:102EC000FEF7A0FF002818BFFDF7A6FC45F6D4705A
:102ED000C2F2000001A901940394FEF731FF00281B
:102EE00018BFFDF799FC04B010BD000080B546F294
:102EF0006C0043F60001C2F20000C4F2010100239D
:102F00004FF00C0C4FF4E13280E80E00C0E90333BF
:102F1000C0E905C3C0E907334362FFF74DFA002853
:102F200018BFFDF779FC80BDFEE70000FEE700005A
:102F300000F0070080F00703042B28BF04234FF0A4
:102F4000FF3C03380CFA03F338BF0020994381405B
:102F50000CFA00F022EA000008437047000000006D
:102F6000EFF30980BFF36F8F154B1A681EF0100F37
:102F700008BF20ED108A20E9F04F10604DF8043DA5
:102F80004FF0500080F31188BFF34F8FBFF36F8F66
:102F900004F012F84FF0000080F311885DF8043B54
:102FA0001968086800F00EB81EF0100F08BF00F096
:102FB0000EB880F30988BFF36F8F704700BF00BF62
:102FC000F460002030C8B0E8C04FFFF7EDBFB0ECB0
:102FD000088AB0EC08CAFFF7ECBF00002DE9F04109
:102FE00041F20004C4F20204E2680E4691078046F2
:102FF00013D0E168D8F8000001F0030181420AD142
:1030000048B1E068D8F80410C0F3021001308842DB
:1030100001D100253AE0012538E0D8F80000032866
:103020000DD0022819D0012821D12168012301F0F7
:103030000202C1F3400183EA5205D9B926E02168B2
:1030400089034FF0010149D4226802F4802381EA08
:103050009345C2F3804169B918E02168012301F466
:103060008062C1F3802183EA922519B90EE001251F
:10307000002159B1E168D8F8042021F073016FF004
:103080000F0303EB021208431043E06015B128461A
:10309000BDE8F081206820F080602060FDF7D2FD5F
:1030A000074600BF2068000105D5FDF7CBFDC01B1A
:1030B0000328F7D30325002DE9D1012E12D02EBB12
:1030C000206948F2FF01CFF6FD710140D8E90220E6
:1030D0000023CFF6FE7303EA403027E000250029E5
:1030E000C8D1D3E748F2FF012069CFF6FF1101F103
:1030F000B4610140D8F810000023CFF6E073D8F88F
:10310000082003EB00506FF314000FE0206948F231
:10311000FF01CFF6FF110140D8F814004FF07E43B5
:10312000D8F8082003EB006000F07E4041EA02215D
:1031300008432061206840F080602060FDF782FD38
:10314000064600BF2068000105D4FDF77BFD801B0B
:103150000328F7D30325002D99D1D8F81800216949
:10316000084320612846BDE8F08100002DE9F041C8
:1031700041F20004C4F20204E2680E469107804660
:1031800013D0E168D8F8000001F0030181420AD1B0
:1031900048B1E068D8F80410C0F30210013088424A
:1031A00001D100253AE0012538E0D8F800000328D5
:1031B00017D002280BD0012821D12168012301F06A
:1031C0000202C1F3400183EA5205D9B926E0216821
:1031D000012301F48062C1F3802183EA922589B939
:1031E0001CE0216889034FF001016AD4226802F4CF
:1031F000802381EA9345C2F3804119B90EE001258D
:10320000002159B1E168D8F8042021F073016FF072
:103210000F0303EB021208431043E06015B1284688
:10322000BDE8F081206820F080502060FDF70AFDA5
:10323000074600BF2068800005D5FDF703FDC01BD1
:103240000328F7D30325002DE9D160697EB148F248
:10325000FF01CFF6FF110140D8F810004FF07E4378
:10326000D8F8082003EB006000F07E400BE048F245
:10327000FF01CFF6FD710140D8E902200023CFF60F
:10328000FE7303EA403041EA02210843606120688E
:1032900040F080502060FDF7D5FC06462068800095
:1032A00005D4FDF7CFFC801B0328F7D30325002DA1
:1032B000B5D1D8F814006169084360612846BDE8BB
:1032C000F081002500299DD1A8E70000B0B582B0AB
:1032D00041F25805C4F2020529680446C90015D414
:1032E000286840F080502860286800F080500190E5
:1032F0000198FDF78FFD296821F080512960B0F514
:10330000007F08D0802C0DD9032015E0FDF782FD49
:10331000B0F5007FF6D1812C0DD30120A02C88BF01
:10332000022009E0A4F17000B0FA80F04009802C7E
:1033300008BF022000E0002042F20001C4F20201B6
:103340000A6822F0070202440A60096801F00701D6
:10335000081A18BF012002B0B0BD000070B51546B4
:103360000E464FF4C05132462B46044600F018F882
:1033700068B9204631462A4600F08AF838B9204616
:103380004FF4C06132462B4600F00AF828B1206E97
:1033900040F020002066032070BD002070BD0000BA
:1033A0002DE9F04F83B04FF000091E4690460D46C0
:1033B00083468DF80790FDF745FC301A00EB0807AF
:1033C000FDF740FC40F20001C2F20001096823222F
:1033D0005143090DDBF800A079430291DAF8081097
:1033E00029424DD0064608F1010407E00298013851
:1033F0000290DBF800008068284214D0B5F5C06F59
:1034000005D19AF80C008DF807009DF80700002CF4
:10341000EFD0FDF717FC801BB84207D202980028B6
:10342000E4D10027E5E74FF0000929E0DBE90001DE
:103430004268B1F5827F22F0E00242600BD1DBF8F6
:103440000810B1F5004F02D0B1F5806F03D10168CB
:1034500021F040010160DBF82810B1F5005F07D1D1
:10346000016821F400510160016841F400510160DC
:1034700001208BF85D0000208BF85C004FF0030901
:10348000484603B000F000B830BCBDE8C08F000073
:10349000F0B581B015460E460446FDF7D3FB281A59
:1034A0008719FDF7CFFB40F20001C2F20001096865
:1034B000C1F3CB317943009121688968090602D4B0
:1034C000002001B0F0BD0546013606E00098013845
:1034D0000090206880680006F2D5002EF9D0FDF734
:1034E000B1FB401BB84204D200980028EED100275F
:1034F000EFE7D4E900014268B1F5827F22F0E002F3
:1035000042600AD1A168B1F5004F02D0B1F5806FD9
:1035100003D1016821F040010160A16AB1F5005FAB
:1035200007D1016821F400510160016841F40051A4
:103530000160012084F85D00002084F85C00032015
:1035400001B0F0BD0000000000000000000000001D
:10355000074B1968086800F00DB880F30988BFF3BD
:103560006F8F4FF0000080F31188704700BF00BFDD
:10357000F460002030C8B0E8C04FFFF7EEBF000095
:1035800080B54FF0500080F31188BFF36F8FBFF309
:103590004F8F03F08FFF30B14EF60450CEF2000093
:1035A0004FF080510160002080F3118880BD000041
:1035B00010B596B005A84421FCF780FE00200490C9
:1035C000CDE90200CDE900004FF40070FDF7E6FB05
:1035D00010BB0120032405904FF48031CDE9104049
:1035E00014200691022112900720CDE9130105A8AD
:1035F0000F911591FDF74EFF70B90F20CDE9000432
:103600000020CDE90200049068460421FDF7CAFDC0
:10361000002804BF16B010BDFDF7FEF84EF6885026
:10362000CEF20000016841F47001016070470000B3
:1036300080B545F6D470C2F20000FEF791FC80BD63
:1036400080B546F22000C2F20000FEF789FC80BD82
:1036500080B540F6FF32D0F800C0C4F200029042BC
:103660000FDCB0F1804F1ED040F20042C4F20002E5
:10367000904218D040F60002C4F20002904212D0EC
:1036800016E040F60042C4F2000290420BD043F232
:103690000042C4F20102904205D042F60042C4F258
:1036A0000102904204D14A682CF0700342EA030CF4
:1036B00042F6FF32C4F20102904214DD43F6FF727B
:1036C000C4F2010290421ADD44F20002C4F2010287
:1036D00090422DD044F60002C4F20102904227D05D
:1036E00044F2004213E040F2FF72C4F20002904242
:1036F00012DCB0F1804F1BD040F2004214E042F6E1
:103700000042C4F20102904212D043F20042C4F2DD
:10371000010290420CD010E040F60002C4F2000218
:10372000904205D040F60042C4F20002904204D11B
:10373000CA682CF4407342EA030C8A680B68D1F81B
:1037400014E0C262A0F18042A2F596324FEAB222A2
:10375000072A836207D8012303FA02F212F0E50F69
:103760001CBF0969016302682CF0800142F0040269
:1037700041EA0E01026001224261016080BD000049
:1037800080B5416A0A070CD4CA0715D18A071ED42E
:103790004A0727D4CA0630D48A0639D44A0657D5F0
:1037A00041E00268D0F834C0536823F4004343EA90
:1037B0000C035360CA07E9D00268D0F828C05368E8
:1037C00023F4003343EA0C0353608A07E0D5026810
:1037D000D0F82CC0536823F4803343EA0C035360C1
:1037E0004A07D7D50268D0F830C0536823F4802345
:1037F00043EA0C035360CA06CED50268D0F838C03D
:10380000936823F4805343EA0C0393608A06C5D57A
:103810000268D0F83CC0936823F4005343EA0C03D9
:1038200093604A0614D50268D0F840C05368BCF5CE
:10383000801F23F4801343EA0C03536008D1D2F8AD
:1038400004C0D0F844E02CF4C00343EA0E035360F4
:10385000090658BF80BD0168806C4A6822F40022C6
:103860001043486080BD0000B0B582B0044600201F
:10387000C4F88400FDF7E6F92168054609680907E0
:103880001AD56FF07E4C20464FF4001100222B46D3
:10389000CDF800C000F0C4F970B100BF206850E856
:1038A000000F216820F0800041E80002002AF5D1D5
:1038B0002020E06703202FE020680068400724D51F
:1038C0006FF07E4C20464FF4800100222B46CDF84D
:1038D00000C000F0A5F9C0B1206850E8000F2168D1
:1038E00020F4907041E80002002AF5D1206850E8E9
:1038F000020F216820F0010041E80202002AF5D100
:103900002020C4F88000032006E02020E067C4F8EF
:103910008000002020666066002184F8781002B0E4
:10392000B0BD000080B5806AFEF7DEFB80BD000000
:10393000016851E8001F026821F4907142E8001309
:10394000002BF5D1016851E8021F026821F0010146
:1039500042E80213002BF5D1016E01290AD100BF04
:10396000016851E8001F026821F0100142E80013CD
:10397000002BF5D12021C0F880100021016681665E
:103980007047000080B500BF016851E8001F026861
:1039900021F0400142E80013002BF5D12021C1673E
:1039A0000021C166FEF7A2FD80BD000070B504468F
:1039B0002269D4E90213006866690A43E169324367
:1039C000066846F6F315CEF6FF750A432E403243DD
:1039D0000260426822F440521A43426048F20002F8
:1039E000A369C4F2000290421CBF266A3343866872
:1039F00026F430663343836044F6FF73C4F2000359
:103A000098424FF0100318DC44F20046C4F200065E
:103A1000B04227D044F60006C4F20006B04228D0D7
:103A200044F60046C4F20006B0423BD141F288039E
:103A3000C4F202031B689B092FE045F20006C4F2A2
:103A40000006B0421CD0904221D043F60006C4F2DA
:103A50000106B04226D141F28803C4F202031B687A
:103A60006BA61BE041F28803C4F202031B689B08AB
:103A700013E041F28803C4F202031B681B090CE047
:103A800041F28803C4F202031B681B0A05E041F2FD
:103A90008803C4F202031B689B0A59A603F00303C0
:103AA00056F82330904242F20040C0F2F40011D0A8
:103AB000B1F5004F1DD1082B00F25C800025DFE836
:103AC00003F0055563595C59595960000025FDF70D
:103AD00059FC59E0082B1AD80026DFE803F0051836
:103AE0001F181C1818183E000026FDF74BFCB0B933
:103AF00038E0082B64D80025DFE803F0055E6C622F
:103B00006562626269000025FDF73CFC62E000200E
:103B1000012620B926E00026FDF75CFC10B36268A0
:103B2000012502EB4201884265D31103884262D825
:103B3000010E000210EB520041F100010023FCF7DE
:103B40003FFB4FF6FF42A0F54071C0F20F029142D9
:103B50000AD821683546C8604DE04FF40040002681
:103B60000028DCD1354646E0012544E00025FDF77C
:103B70001DFC09E00020012506E00025FDF72AFCD8
:103B800002E04FF400400025A8B361684A0802EB48
:103B90004000B0FBF1F04FF6EF72A0F1100191423E
:103BA00008D84FF6F0710140C0F342002268084483
:103BB000D06020E001251EE00025FDF7F7FB09E0BD
:103BC0000020012506E00025FDF704FC02E04FF48B
:103BD0000040002578B161684FF6EF7200EB5100AC
:103BE000B0FBF1F0A0F11001914203D8216880B23E
:103BF000C86000E0012500212846A166E16670BD8D
:103C000000000000040000000200000008000000A6
:103C10000100000004000000020000000800000095
:103C20002DE9F04381B004460068C0690840401A9D
:103C3000B0FA80F0400990423DD1DDF82080154671
:103C40000E46994608F1010709E000BF2068C069E7
:103C50003040801BB0FA80F04009A8422FD1002FDD
:103C6000F4D0FCF7EFFF0146B8F1000F4FF003006E
:103C700026D0A1EB0901414522D8206801684907F7
:103C8000E4D5402EE2D0802EE0D0C16909071AD4D5
:103C9000C1690905DAD54FF4006101622046FFF7DA
:103CA00047FE2020C4F88400002084F87800032018
:103CB00001B0BDE8F083002001B0BDE8F083002032
:103CC00001B0BDE8F083082505622046FFF730FE0D
:103CD0000020C4F8845084F87800012001B0BDE8C9
:103CE000F083000080B540F24C00C2F200004FF4B7
:103CF000A071FCF7E3FA40F24800C2F20000002194
:103D0000016080BD2DE9F0412DED048B40F24804A7
:103D1000C2F20004216840F24C0608444FF000084B
:103D2000C2F20006B7EE009A0027206004E000BF50
:103D30002837B7F5A07F4AD0F51995F82400002858
:103D4000F6D028690028F3D06868B0EE498A98B1A7
:103D50002168F25901EE100A891A00EE101AB8EE25
:103D6000400AB8EE411A80EE018AB4EE498AF1EEBB
:103D700010FAC8BFB0EE498A6869B0EE480A10B1BF
:103D8000B0EE480A8047D5E90202E969121A01EE4D
:103D9000102AB8EEC11A20EE010ABDEEC00A10EEDC
:103DA000102A10442A69106009B1286A8847B4EEC5
:103DB000498AF1EE10FABBDBA969D5E903020029B3
:103DC000106085F82480B3D0286A8847B0E7BDEC3E
:103DD000048BBDE8F081000080B501F0ABF880BD38
:103DE0002DE9F04182B0884605460D201E21302283
:103DF000FFF7F2FF40F23006C2F2000654270190AE
:103E0000304629462B228023009700F007FF272009
:103E10003E215222FFF7E0FF0446304629462B227E
:103E200080230097019400F069FF304629462B2239
:103E300003230097CDF8048000F0F0FE02B0BDE847
:103E4000F081000010B501F045F840F23004C2F2F4
:103E50000004A08001F03CF840F2D811E08040F26C
:103E6000DC140020C2F20001C2F20004086049F232
:103E7000F7312060C0F60001012000F02FFC06A100
:103E8000032000F02BFC0AA1042000F027FC21688D
:103E9000022000F015FC10BD5549207461736B20A1
:103EA0006C6F636B656420746F2031306D7300003C
:103EB00053657276696365732069736F6C617465AD
:103EC00064000000704700002DE9F04F97B0E62035
:103ED000EE21F722FFF780FF80468E20A021B4223A
:103EE000FFF77AFF04463D20AE21EB22FFF774FF77
:103EF00083465720DC218E22FFF76EFF8146F62095
:103F0000B8215222FFF768FF49F2F7310490C0F65A
:103F10000001012000F0B6FB49F208410390C0F611
:103F20000001032000F0AEFB49F217410590C0F6F6
:103F30000001042000F0A6FB06900220002100F002
:103F400095FB49F2E9320346C0F600020FA8202192
:103F500003F02EFC40F2D810C2F20000036868A201
:103F600007A8202103F024FC40F23007C2F200072A
:103F7000B7F904A0B7F90650082012211E22FFF756
:103F80002BFF064638460021002253460095019635
:103F900000F044FEB7F904600B2022213622FFF71F
:103FA0001BFF0546202000903846002100223346A2
:103FB000019500F033FEB7F9043002200090384636
:103FC00000211F22CDF804B000F028FE039B3846E4
:103FD0000E210822CDF8008000F0CCFE4BA338461D
:103FE0004FF498710822CDF800B000F0C3FE0C2009
:103FF0005946FFF7F5FE49A3384617213422CDF87C
:10400000008000F0B7FE49A33846172148220094EB
:1040100000F0B0FE48A3384617215B22009400F060
:10402000A9FE49A3384617216E22CDF8009000F072
:10403000A1FE96204946FFF7D3FE46A33846A121AC
:104040003422CDF8008000F095FE46A33846A12129
:104050004822009400F08EFE47A33846A1215B223F
:10406000009400F087FE3846A1216E220FABCDF8F8
:10407000009000F07FFE049D4FF490702946FFF7FA
:10408000AFFE42A3384640F22B113422CDF8008017
:1040900000F070FE059B384640F22B114822009438
:1040A00000F068FE069B384640F22B115B2200941C
:1040B00000F060FE384640F22B116E2207AB0095EF
:1040C00000F058FE1C2032214622FFF785FE0646EE
:1040D0008620009038460C2186224FF4D07301963A
:1040E00000F0D2FD49F29D33C0F6000338460F219F
:1040F0007E22009400F03EFE17B000F04FB800BFE3
:104100004672616D6520256C7500000052656E6415
:10411000657265723A204547554900005549204669
:1041200072616D65776F726B000000004F6E6520E5
:104130005549207461736B0050616765206C696636
:10414000656379636C6500004E6F205549206D757D
:10415000746578005374617465204368616E6E65A0
:104160006C0000004D657373616765427573206173
:1041700073796E630000000050726F70657274791D
:10418000206475616C627566000000004C616E64AD
:10419000696E6720537461747573000030BCBDE8AC
:1041A000C08F000080B500F031F880BD704700007E
:1041B00080B589B1087840F00200072818BF80BD9B
:1041C00040F2DC10C2F200000168013101600220FF
:1041D00000F076FA00F01AF880BD000080B549B111
:1041E0004888002808BF80BD03A1042000F076FAAB
:1041F00000F00CF880BD00BF4D65737361676520EA
:10420000636F6E73756D65640000000080B582B0E9
:1042100040F23001C2F2000149680020CDE90001FE
:10422000684600F04BF802B080BD000080B540F257
:10423000D810C2F20000016845F629420131CCF2E3
:104240008F2247F2A3034A43C0F63D239A420160FE
:1042500088BF80BD40F2DC10C2F20000016801316D
:104260000160022000F02CFAFFF7D0FF80BD0000B3
:1042700080B544F28920C0F6000000F08DF90120DD
:1042800000F096F980BD000040F20401C2F2000186
:10429000012818BF002108467047000080B540F291
:1042A0009010C2F200004021FCF708F840F28C1098
:1042B000C2F200000021016080BD00002DE9F04144
:1042C000002808BFBDE8F08140F28C18C2F2000857
:1042D000D8F80070044697B1D8F8007040F29015F5
:1042E0003E46012F98BF0126C2F20005284621460E
:1042F00000F04CF8A8B9013E05F10805F6D1072FEA
:1043000011D8781CC8F8000040F29010C2F20000EA
:104310002268636800EBC70140F837204B60BDE8B6
:10432000F081284603E040F29010C2F200002146DE
:1043300000F002F8BDE8F08170B5B0F90020B1F9E5
:104340000040B0F90230B0F904C0B1F90250B1F93F
:104350000460B0F906E0B1F90610A2422644B8BFE5
:104360001446AB4262442944B8BF1D46B242C8BF9E
:1043700016460EEB03028A42C8BF1146321B491B88
:10438000048045808280C18070BD000080B5B0F996
:1043900000C0838803EB0C02B1F900300FFA82FEF3
:1043A0005A1E724512DC8A889BB21A4412B2ACF1D2
:1043B000010393420ADCB0F902C0C08800EB0C0391
:1043C000B1F902001BB2421E9A4201DD002080BDFD
:1043D000C98880B2084401B2ACF1010200208A42CF
:1043E000D8BF012080BD000010B588B10446807A96
:1043F00020B1607B00281CBF204610BD6069FFF71C
:10440000F3FF002818BF10BDA069FFF7EDFF10BD36
:10441000002010BD40F2D410C2F200000021016063
:1044200040F2D010C2F200000160704740F2D0119B
:10443000C2F200010A68824208BF7047002A1CBF0E
:104440004FF48073A2F80B30002808601CBF40F2C4
:104450000111A0F80B10704780B540F2D411C2F2E0
:1044600000010860FFF7C0FFFFF7E0FF80BD00001C
:1044700010B582B044F60444C2F20004206810B1C2
:10448000012002B010BD44F6504244F608434FF0FC
:10449000000CC2F20002C2F2000310202821CDF865
:1044A00000C002F04DFE2060002818BF012002B0BD
:1044B00010BD000080B50A46014600284FF00000FC
:1044C0000BD044F60443C2F200031B68002B08BF64
:1044D00080BD1846002302F05FFE80BD40F2E01070
:1044E000C2F2000090F91810002954BF50F82100C2
:1044F0000020704740F2E010C2F200000021C0E945
:104500000011C0E90211C0E90411FF2101767047D2
:10451000B0B5044600284FF0000022D040F2E0156C
:10452000C2F20005297E042988BFB0BD48B255F803
:10453000200018B1C169002918BF8847287EA178DA
:104540000130287640B245F8204029B9E16819B118
:10455000204688470120A070216919B1204688476C
:104560000120B0BD0120B0BD80B5FFF7B7FF002826
:1045700008BF80BD8169002918BF884780BD000041
:1045800010B50446FFF7AAFF28B1426A002A08BF07
:1045900010BD2146904710BD80B540F2FC11C2F21B
:1045A00000010860FFF7A6FFFFF734FF80BD0000A1
:1045B00080B540F2FC11C2F20001096849B1884798
:1045C00038B1FFF7A5FF012803D100F011F8012051
:1045D00080BD002080BD000080B5FFF77FFF002870
:1045E00008BF80BD4169002918BF884780BD000011
:1045F00080B5FFF773FF002814BF40680020FFF765
:104600002BFF80BD40F240620021C2F2000200BFD9
:10461000535A834204BF501870474431B1F5886F34
:1046200004BF00207047F3E710B540F20023864630
:104630004FF0000CC2F20003002200209C5A99188F
:10464000744510D0002C18BF6146002802F14402C6
:1046500008BF0846B2F5886FF0D100281CBFA0F84B
:1046600000E010BD10BD084610BD000010B50C469E
:10467000FFF7C8FF18B18178012908BF44682046B8
:1046800010BD000010B50C46FFF7BCFF18B18178D3
:10469000032908BF041D204610BD000080B540F26C
:1046A0000020C2F200004FF48861FBF707FE40F2E1
:1046B0004060C2F200004FF48861FBF7FFFD80BD4F
:1046C00010B50C46FFF7B0FF00280FBF002040F2E6
:1046D00001114180446018BF012010BDB0B50D46E6
:1046E000FFF7A2FF0446002D4FF0000018BF002C7A
:1046F00000D1B0BD0320A070201D29463F22FBF74A
:10470000E8FD002084F843000120E070B0BD000007
:104710002DE9F04702F0C8FA40F2002740F2406964
:104720004FF00008C2F20007C2F200094FF0010A80
:10473000002603E04436B6F5886F0FD0BC19E07848
:104740000028F7D009EB0605284621464422FBF74E
:104750009CFD85F803A084F80380EBE702F0C2FA21
:10476000BDE8F087F0B581B040F68022C2F20002C9
:1047700011882F2901D900240EE040F68226C2F2CA
:1047800000060546481C06EB811410808F01204668
:104790004021FBF793FDF555204601B0F0BD000028
:1047A00080B5082012211E2200F0C4FB80BD00004D
:1047B00040F68020C2F20000002101807047000016
:1047C0002DE9F04F8BB00E4600284FF00001079204
:1047D00018BF002E03D108460BB000F009B90446FB
:1047E00007980028F7D0002BF5D014980028F2D0B5
:1047F000B4F904700693012FC0F2F880B4F906A052
:104800000021BAF1010FE6DBB4F900800021404637
:1048100000F088FBB4F902508346ADF8200028462A
:10482000002100F07FFB8146ADF8220008EB070075
:10483000A0EB0B00CBF5D67100B209B2CDF808B0F1
:1048400000F074FB0446ADF8240005EB0A00A0EB71
:104850000900C9F18E0100B209B2CDF8149000F040
:1048600065FB0021012CADF826000A91A8BF0128A4
:10487000B1DB029921444A1E05990192084401388E
:10488000049000B2039010B2009003E001210020D8
:104890000028A0D00798B6F90040B0F9008008AD14
:1048A0000F4628462146424600F01CFB06998346E7
:1048B000B1F9009014992846B1F900A04946524632
:1048C00000F010FB50EA0B01E0D010EA0B0F03D010
:1048D00000200021DCE700BFBBF1000FA1B218BF30
:1048E0001BF008021BD1BBF1000F18BF1BF0040224
:1048F00024D1BBF1000F1FFA88F218BF1BF002038E
:104900002BD1BBF1000F39D0029BAAEB0800191B79
:104910004843A9EB040190FBF1F0338028E0039AAF
:10492000A9EB0400A2EB08025043AAEB080290FB9B
:10493000F2F008443080049807991BE0059BA9EB2E
:104940000400A3EB08025043AAEB080290FBF2F02C
:1049500008443080079803800DE00099AAEB080016
:10496000091B4843A9EB040190FBF1F00199318048
:104970000799104408800120394689E7030708D4C5
:10498000430717D48007AAEB080023D4029B191B06
:1049900023E0039AA9EB0400A2EB08025043AAEB20
:1049A000080290FBF2F008440699088014980499D4
:1049B0000180E0E7059BA9EB0400A3EB080250434C
:1049C000AAEB080290FBF2F00844069908801498BC
:1049D0000380D0E70099019B091B4843A9EB040120
:1049E00090FBF1F006990B801499C2E70021F2E6E2
:1049F00030BCBDE8C08F00002DE9F04F89B0002821
:104A00004FF0000575D00F46002972D09046002A5D
:104A10006FD01C46002B6CD0DDF84890B9F1000F28
:104A200067D00646B4F9000001285BDBB9F9001035
:104A3000012959DBB6F904A0BAF1010F56DBB6F92A
:104A40000620012A54DB0492B7F90020B6F900B021
:104A500010440790B8F900000592069008440890A9
:104A600058460021002500F05DFAB6F90260029078
:104A70003046002100F056FA03900BEB0A0000B21A
:104A80004FF4D67100F052FA019004988E21304410
:104A900000B200F04BFA04900598029900F042FA37
:104AA00082460698039900F03DFA834607980199DB
:104AB00000B200F03BFA06460898049900B200F0F4
:104AC00035FA5645C8BF584513DDA6EB0A01A0EBE1
:104AD0000B000125A7F800A0A8F800B02180A9F8D4
:104AE000000006E0002504E0002502E0002500E0CB
:104AF0000025284609B000F000B830BCBDE8C08FE2
:104B00002DE9F04184B0002800F084800D46002992
:104B100000F0808004462878032800F27B80EE892C
:104B2000DFE800F00216293BB5F90400B5F90230C0
:104B300048F23C1105F11002FF27CDE90006C0F64E
:104B400000012046029700F05FFD04B0BDE8F0814F
:104B5000B5F90800B5F90210B5F90420B5F9063029
:104B6000FF2701258DE861002046039700F036FB02
:104B700004B0BDE8F081B5F90C00B5F90210B5F943
:104B80000420B5F90A30FF27CDE900062046029738
:104B900000F026FD04B0BDE8F081B5F90210B5F9CA
:104BA0000420B5F906304FF0FF0801272046CDE973
:104BB00000270296CDF80C8000F010FBB5F902102A
:104BC000B5F90630B5F908202046CDE90027029650
:104BD000CDF80C8000F002FBB5F90210B5F9080021
:104BE000B5F90420CDE9000720460B460296CDF822
:104BF0000C8000F0F3FAB5F90610B5F90800B5F924
:104C00000420CDE9000720460B460296CDF80C8023
:104C100000F0E4FA04B0BDE8F081000080B584B093
:104C2000DDF818C0ADF80E30ADF80CC050B3B0F8D8
:104C300000C003896144C91AADF80A10418843894C
:104C40001144C91AADF808100DF10C0C0DF10A0150
:104C500002AA0DF10E03CDF800C0FFF7CDFE88B11A
:104C60000220FFF77FFD68B1BDF80A10BDF80E20E5
:104C70004180BDF8081042818180BDF80C10079A70
:104C80008181C28104B080BDB0B584B098B3B0F862
:104C900000E004897144091BADF80E104188458974
:104CA000DDF820C00A44521BADF80C200EEB0302C5
:104CB0006144121B491BADF80A20ADF8081002AD83
:104CC0000DF10E0103AA0DF10A030095FFF778FD1F
:104CD00088B10120FFF746FD68B1BDF80E10BDF8A0
:104CE0000A204180BDF80C10C2808180BDF80810F8
:104CF000099A0181C28104B0B0BD000080B584B0C2
:104D0000DDF818C0ADF80E30ADF80CC080B3B0F8C7
:104D100000C003896144C91AADF80A10418843896B
:104D20001144C91AADF808100DF10C0C0DF10A016F
:104D300002AA0DF10E03CDF800C0FFF75DFEB8B179
:104D40000320FFF70FFD98B1BDF80A10BDF80E2043
:104D50004180BDF808301144BDF80C200139DDF860
:104D60001CC0C1809918013983800181A0F80EC050
:104D700004B080BD2DE9F04188B31C467BB3B0F987
:104D8000003007891944C91B0EB29E4227DBB0F9D7
:104D9000021047890A44D21B17B28F421FDBB0F9B9
:104DA00004201A44B2421ADDB0F906000844B842A1
:104DB00015DD00204FF00008FFF7D4FC002808BFE5
:104DC000BDE8F081054606982146E88105F110000E
:104DD0002F226E80AF80FBF77CFA85F83F80BDE81C
:104DE000F08100002DE9F04F8FB00020049040F2D8
:104DF000AC10C0F28E000590FFF7D2FC41F2826544
:104E000040F68028C2F2000506AEC2F200084FF05C
:104E1000000901900DE000BF1FFA8BF30020394616
:104E20004FF4D67209F110090095FDF785FB7E2F2E
:104E300039D21FFA89F7C9F18E0B4FF4D6747F2F40
:104E400038BF4FF0100B0BFB04F081B2019800F05B
:104E500031F80020ADF80800304600212A4602ABA8
:104E6000ADF80A90ADF80C40ADF80EB000F034FE8D
:104E7000304604A900F04EF9B8F800000028CBD065
:104E800040F682244FF0000AC2F200043046214668
:104E9000FFF736FEB8F800000AF1010A824504F176
:104EA0004004F3D3B8E70FB000F000B830BCBDE861
:104EB000C08F0000002908BF704741F28262C2F231
:104EC0000002023A013922F8020FFBD170470000BC
:104ED0008E2070474FF4D6707047000080B5FDF704
:104EE0006DFB80BD80B5B0F900E0B0F902C08E4521
:104EF00001DD012109E083887344013B0FFA83FE41
:104F000000238E45B8BF012359009445C4BF081D36
:104F100080BDC0886044013800B29042B8BF0831FB
:104F2000084680BD8842D8BF084670478842A8BF5F
:104F30000846704701F0FC0100F0F800C90041EAA2
:104F4000002040EAD200704710B584B044F6D06427
:104F5000C2F20004206810B1012004B010BDFFF7B8
:104F600087FA012828D1FFF799FBFFF797F9FFF798
:104F7000B5FFFEF7B7FEFFF77BF901281CD144F619
:104F8000D460C2F20000022145F6D46CCDE90010D5
:104F900044F6C970C2F2000CC0F6000008A14FF43C
:104FA00080620023CDF808C002F048FA2060002893
:104FB00018BF012004B010BD002004B010BD00BF18
:104FC00075695461736B00008CB002F06DFA0B9040
:104FD00001AC0BAD03E000BF2046FFF7D1FA20463D
:104FE0000021FFF767FA0128F6D0FFF791FBFFF7E2
:104FF000F3FA0A20FEF786FEFFF7DAFBFFF7B4FAB2
:10500000FFF7F0FE28460A2101F0CCFEE7E700009A
:1050100080B546F26C00C2F20000FDF767F880BD73
:10502000FEE70000002848BF704700F01F01012282
:1050300002FA01F14EF200124009CEF2000242F8EB
:10504000201070474EF60C50CEF200000068C0F3FE
:10505000022070474EF6145300F00F02CEF2000308
:1050600009011A4400F16043B0F1FF3FC8BF03F5E6
:1050700064421170704700004EF60C51CEF20001F0
:105080000A684FF6FF031A4060F30A2242F080607C
:1050900040F0FD700860704780B5FBF7BDFB80BD38
:1050A000704700000020704710B5002918BF002B82
:1050B00000D110BDFF2B01D0FC2B03D392B200F026
:1050C000E5FC10BD042BF4D3002908BF10BD4FF63A
:1050D0001F0C0CEA020C02F4FC624FF61F0E4CEAA5
:1050E000024CC0F2E07EDB08023800BF30F8022F2D
:1050F000013942EA024202EA0E02ACEB020403FB6F
:1051000004F402EB541202EA0E0242EA1242028056
:10511000ECD1CEE7B0B50C46054600F1100200F127
:105120000801204601F018FA2088298A6A8A081A9C
:1051300061882882501A298922886882881A698998
:1051400062882883881A6883B0BD0000B0B586B035
:1051500004460A9804ADADF81010ADF81220ADF871
:10516000160004F1100128462A46ADF8143001F06B
:10517000BBF9284601F018FA08B106B0B0BD0C9989
:10518000207F00F077FD0028F7D084460B98BCF113
:10519000FF0F11D1BDF91010BDF91220BDF9143067
:1051A000BDF916501FFA80FC20460095CDF804C0CA
:1051B00000F0CCFC06B0B0BDBDF91650BDF9101022
:1051C000BDF91220BDF9143080B2CDE9005020465F
:1051D000CDF808C000F010FD06B0B0BD2DE9F04FCD
:1051E00097B0DDF8809016460D46591A48BF4942DF
:1051F000B9EB0604DDF88CC0DDE921A81F4648BFE5
:1052000064420A0427D0AF423B46C8BF2B46220463
:1052100032D0A3EB0A024B4601EB4A01B145C8BFAD
:105220003346013104EB4A04A3EB0A030134ADF821
:1052300058100F9000F1100115A8ADF85420ADF8EA
:105240005630ADF85A4001F0BDF9002874D0AF4295
:1052500023DA314626E0631CA5EB5A011FFA88F2D7
:105260001BB2B145C8BFB146CDE9003209B24A46CA
:105270005346CDF808C00BE04F1C1FFA88F1A6EB8F
:105280005A02CDE900A119B23BB2239F12B2029794
:10529000FFF75CFF17B000F00CB938464946B1463D
:1052A0002F4605460F98239BBAF1010F13DCA1EBA3
:1052B000090213B202EBE3362846ED1B86EAE3331C
:1052C0009BB22EB2B342CDE9136312DD494512DA27
:1052D0003A464B4613E01FFA88F20126CDE9001A40
:1052E000CDE9022339464A462B46049600F09EF942
:1052F00022E0064608E002460B463846494681460B
:105300005D1A121A1E460F4610B202EBE032B0F1DF
:10531000FF3F82EAE0302AB205EBE2314FF0FF3B7B
:1053200003B281EAE231C8BF4FF0010B89B2002B12
:1053300048BF4942B74202DD17B000F0BAB801EBEE
:10534000D171491001EB004090FBF2F00F991290DF
:10535000B1F91020888AB1F912301044C98A00B21C
:105360000D90C81800B20E901FFA88F00A900FFA3C
:105370008BF00C9035464FF00008119210930B966D
:105380000FE000BF009600F097F80B9D1298404484
:10539000B0F58038B4BF8046D944781C07B2AF421C
:1053A000CADC239C4FEA182AFF2C6FEA18260AD081
:1053B0005FFA8AF1204600F069FC8246F1B220468D
:1053C00000F064FC0646DDE913103CB2884237DD8C
:1053D00010988442DADB0E988442D7DA11980FFADB
:1053E00089F5854214DB0D98854211DA06994FF64E
:1053F000FF7021EA00000A995FFA86FC43180F98B3
:10540000294622461E460693CDF800C000F054F807
:105410000C98119928448842B7DB0D998842B4DA78
:10542000079A4FF6FF7122EA01010A9A5FFA8AF69B
:105430008B1801B20F9822461D460793A2E700BFC2
:1054400011988442A2DB0D9884429FDA10980FFADB
:1054500089F5854214DB0E98854211DA08994FF6DA
:10546000FF7021EA00000A995FFA86FC43180F9842
:1054700021462A461E460893CDF800C000F01CF8CD
:105480000C98109928448842FFF67FAF0E99884205
:10549000BFF67BAF099A4FF6FF7122EA01010A9A23
:1054A0005FFA8AF68B1802B20F9821461D460993BF
:1054B00068E730BCBDE8C08F2DE9F04182B00C46F2
:1054C00006460899007F98461746ADF8043000F06C
:1054D000D1FBD0B1054606F1100021463A4601F055
:1054E00095F890B1308B718B201AB6F90C30791A7F
:1054F000726800B213FB0100FF2D02EB400007D0E1
:1055000001A902462B4601F09BF802B0BDE8F081EC
:10551000A0F8008002B0BDE8F08100002DE9F04F56
:1055200083B0002B48D0DDF830A0BAF1000F43D093
:105530000D9C002C40D08046DDE90E091E46154624
:105540000F46B4EB630F1FFA80FB38DA4FEA6A00AC
:10555000A04234DD404639462A462346CDE900AB19
:10556000CDF80890FFF7F2FDF019001B01B240469C
:105570002A462346CDE900ABCDF80890FFF7E6FDBB
:10558000E019A6EB440106B20FB2404631462A4666
:105590003B46CDE9004BCDF80890FFF7D7FD0AEB6D
:1055A0000500001B02B2404631463B46CDE9004BA8
:1055B000CDF80890FFF7CAFD03B000F00DB84046E3
:1055C00039462A463346CDE900ABCDF8089000F0C5
:1055D00007F803B000F000B830BCBDE8C08F000091
:1055E000B0B584B0012B0DDBDDF820C0BCF1010F9C
:1055F00008DBDDE909E51FFA8EF4CDE900C4029568
:10560000FFF7A4FD04B0B0BD70B584B04C68DDF800
:1056100020E0BDF824500A9E24688446084661466E
:10562000CDE900E50296A04704B070BD2DE9F04F2A
:10563000A9B0329F15460C46591A199048BF4942E5
:10564000339E781B48BF404200EB4600A342994678
:105650001A463B4600F10100C8BF2246AF42C8BF10
:105660002B4601EB4601ADF8A20019980131921BBF
:105670009B1BADF8A01000F1100127A8B846ADF8AB
:105680009C20ADF89E3000F09DFF002800F0D780F0
:105690004946A14503DAAA46A146424603E0C2466E
:1056A00089462A462146B9EB0100AAEB02071D9064
:1056B00010FB00F017FB070B06F10100229080FBA6
:1056C000000E2397A0FB0B0C4F462690C8BF0F4639
:1056D000924555464846C8BF154689454C465046F2
:1056E0004FF00103CDF820901B91B8BF0C469245B6
:1056F000CDF810A00E92B8BF1046199903EB6603BF
:10570000FF1AED1A1C441844B1F910908B8AB1F9B4
:105710001220C98A0FFA87F84B44C845C8BFB9465A
:105720002FB211441BB2974224B2A3F1010A0BB26B
:10573000C8BF2A46A24500B2A3F101082092C8BF03
:10574000A2468045C8BF8046711EB8BF002181FBBC
:105750000112269F0EFB0BC0A1FB0B13BF08CDF857
:1057600078B002FB0B3B860847EA8077880840EA5E
:105770008B7041F20121B7EB000CC0F27A01CDE948
:10578000240766EB9B00BCEB01014FF0000370F1B6
:1057900000014FF00007269612DB42F20145C0F2ED
:1057A000F4050027624601465FEA61044FEA3206CB
:1057B000AA1A73EB010107F1010732462146F3DB18
:1057C000C7F120012CFA07F2189100FA01F11143F8
:1057D000B7F12002179258BF40FA02F119981F91B1
:1057E000016A339C1C91B0F90C100391B0F91810A8
:1057F0000791B0F91A10007F0291239906900804CE
:105800000DB21690219510D0002D44BF219845422D
:105810001E9800F07DF92299013080FB01016A0099
:105820000023FAF701FD023001E047F6FF70159002
:10583000209805B20FFA88F0A842149002DA29B035
:1058400000F020B91D9EA01C04FB04F140430FFA98
:1058500086FC4FEA9B0623968E0884081B980899BD
:10586000349A084400EBD070401012900FFA89F07F
:1058700011900FFA8AF01090A01B369B0A9090B2FC
:105880000F9005961D941397CDF888C007E000BFD0
:1058900020980130209005B21498A842CFDB1698CA
:1058A000219E002812980CD00E98F317281A80FB1E
:1058B0000C013246FAF7B8FC1B99DDF888C0369B1C
:1058C00008441599119AA0EB010A9245B8BF924677
:1058D000084410990FFA8AF78142B8BF08460FFAB8
:1058E00080F8DDF878904745D2DC1C9808B100209C
:1058F00007E019980299039A4068691A514300EB2E
:105900004100B8450D90C3DB0E9A1B99501B00FB5C
:105910000CF0791A01FB0604A81A00FB06F201FB41
:105920000C2B04994043691A494309910B9000BF1D
:1059300013B9CB4500F29C80259A84FB0410521ABF
:10594000269A8241C0F09480249A359D521A239A57
:1059500082414FF0000238BF012225FA02F522D21F
:105960001F9A012A1FDB249A891A239A9041139ABD
:10597000D140189A00FA02F21143179A002A58BF30
:1059800040FA02F1C1EB01201F9990FBF1F0C0F148
:10599000FF0020EAE070C1B2359800F077F9DDF839
:1059A00088C0369B054693B3BBF1FF3F04DDCB4572
:1059B0002DDD0898099901E01B980B99381A00FB16
:1059C00000191D98814503D92198E344044418E047
:1059D0000A98012815DB0598814512D9A9EB00002A
:1059E0000A99C0EB002090FBF1F0C0F1FF0020EA23
:1059F000E070C1B2284600F049F9DDF888C0369B56
:105A000005461D98219E8145DDF8789032D87DB3FA
:105A10001C9888B11A994FF6FF7021EA00000F997F
:105A20000095431820980FFA8AF102B219981F4680
:105A30001A93FFF741FD17E007980D99381A01EB0B
:105A400040090698294600F021F90C9902464FF6C4
:105A5000FF7021EA00000F99219E01444846DDF8BD
:105A600078900C9100F042F8DDF888C0369B00BFBA
:105A70003444E3440AF1010A0FFA8AF7B845BFF645
:105A800057AF05E730BCBDE8C08F0000002908BF54
:105A9000704783071CBF20F8022B0139022914D359
:105AA0000829C2EA024308D30839C0E90033C0E933
:105AB0000233072900F11000F6D8022905D300BFF0
:105AC0000239012940F8043BFAD8002918BF0280A6
:105AD000704700001030704710B50446E0E802122D
