:020000040800F2
:10000000305B00209D010008ED1F0008B51D0008B1
:10001000E91F0008B1020008D12B00080000000011
:100020000000000000000000000000002124000883
:10003000C502000800000000212000085D2400081F
:10004000B7010008B7010008B7010008B7010008B0
:10005000B7010008B7010008B7010008B7010008A0
:10006000B7010008B7010008B7010008B701000890
:10007000B7010008B7010008B7010008B502000881
:10008000B7010008B7010008B7010008B701000870
:10009000B7010008B7010008B7010008B701000860
:1000A000B7010008B7010008B7010008B701000850
:1000B000B7010008B7010008B7010008B701000840
:1000C000B7010008B7010008B7010008B701000830
:1000D000B7010008C12B0008B7010008B7010008EC
:1000E000B7010008B7010008B7010008B701000810
:1000F000B7010008B7010008B7010008B701000800
:10010000B7010008B7010008B7010008B7010008EF
:10011000B7010008B70100080D2500081D250008DB
:10012000B7010008B7010008B7010008B7010008CF
:10013000B7010008B7010008B7010008B7010008BF
:10014000B7010008B7010008B7010008000000006F
:10015000B7010008B7010008B7010008B70100089F
:10016000B7010008B7010008B7010008B70100088F
:10017000B7010008B70100080000000000000000FF
:10018000B7010008B7010008DFF80CD000F07EF8D6
:1001900000480047492C0008305B00200648804793
:1001A00006480047FEE7FEE7FEE7FEE7FEE7FEE75C
:1001B000FEE7FEE7FEE7FEE7F924000889010008F4
:1001C0002DE9F05F0546002092469B46884606468C
:1001D000814640241BE0284641464746224600F01F
:1001E00044F853465A46C01A914110D31146184656
:1001F000224600F02BF82D1A67EB01084F462246E5
:100200000120002100F022F817EB00094E41201ECA
:10021000A4F10104DFDC484631462A46434600F09B
:1002200000B830BCBDE8C09FD2B201E000F8012B9D
:10023000491EFBD270470022F6E710B513460A4666
:1002400004461946FFF7F0FF204610BD202A04DBC4
:10025000203A00FA02F1002070479140C2F12003D9
:1002600020FA03F3194390407047202A04DB203A18
:1002700021FA02F00021704721FA02F3D040C2F1C6
:10028000200291400843194670470000064C074D74
:1002900006E0E06840F0010394E807009847103456
:1002A000AC42F6D3FFF774FF5C3900087C390008D4
:1002B000FEE7000080B540F21000C2F2000000F03E
:1002C0005BF880BD70470000EFF3108072B600BF8E
:1002D000FEE70000002804BF0120704790F82510B9
:1002E000022915D10168D0E910C30A6822F0010281
:1002F0000A600A6822F00E020A6003F01C01012263
:1003000002FA01F1CCF80410002180F8252002E067
:100310000421C1630121002280F82420084670478F
:1003200080B590F82510022921D10168D0F838E075
:10033000D0E910C30A68BEF1000F22F001020A6082
:100340000A6822F00E020A6003F01C014FF001025D
:1003500002FA01F1CCF804104FF0000180F82520DA
:1003600080F8241001D0F0470021084680BD042108
:10037000C1630121084680BDB0B50168D0E910C451
:10038000DCF800500B6804F01C0E5A0713D5042249
:1003900002FA0EF414EA05020DD00A68920603D49C
:1003A0000A6822F004020A60CCF80440016B0029BC
:1003B0003FD08847B0BD9A0720D5022202FA0EF43A
:1003C00014EA05021AD00A68920606D40A6822F0D6
:1003D0000A020A60012280F825200422C4F20202E7
:1003E00002F17C03994288BF02F580621460C16A01
:1003F000002280F82420E1B18847B0BD1A0758BF19
:10040000B0BD082202FA0EF22A4012D00A6822F089
:100410000E020A60012101FA0EF2CCF80420C16339
:1004200080F82510416B0022002980F8242018BF95
:100430008847B0BD002804BF0120704770B540F266
:10044000000CC4F2020C02684FF6F8310CF581631F
:10045000CBF6FD719A4238BF01F580614CF6CD4371
:100460001144CCF6CC43A1FB03136FF003060CF54B
:10047000806506EA9303D0E9021E04693CBF0025AB
:10048000C4F20205C0E91053022380F82530136836
:1004900047F6F075AB4313604EEA01034669234308
:1004A0003343D0E90665B1F5804F43EA0603066A97
:1004B00043EA0503156843EA060343EA05031360AC
:1004C00016D0D0E910324FF49565416802F01C0255
:1004D0000F26634508BFA8255CF805309640B34356
:1004E0004CF805305CF80530914019434CF8051084
:1004F00000210122C16380F8252080F82410BDE886
:1005000070400846704700002DE9F04F85B00A683A
:10051000002A00F0CF8000F10C03019300F12C03BE
:1005200000F1384700934FEAB72341F600070393E1
:10053000C4F60007072300264FF0000C4FF0010B14
:10054000B84208BF062302930BE000BF0A680CF113
:10055000040C32FA0BF30BF1010B06F1020600F06A
:10056000A980ABF10108012303FA08FE12EA0E0A82
:10057000ECD0D1F8049009F00302541E012C12D8DB
:1005800084680323CF6803FA06F5AC4307FA06F53F
:100590002C4384604468C9F3001524EA0E0405FA6C
:1005A00008F52C434460032A08D1009DC9F3C00715
:1005B0002C6807FA08F724EA0E0407E0019B0325DC
:1005C0001F688C68B540AF43B4401D462743022ADC
:1005D0002F600FD16FF0030202EA580202440CF0C0
:1005E0001C050F23176A03FA05F40B69A743AB40F8
:1005F0003B431362026803234F68B3409A4307F0FA
:100600000303B3401A4317F4403F02609ED041F207
:100610006003C4F202031A6840F2004442F001028F
:100620001A601A68C4F2010402F001020492049AEA
:1006300028F003024FF608482244CFF6FF7852F81C
:1006400008300CF00C070F25BD4023EA050E039B74
:10065000029D062B38BF1D4605FA07F747EA0E0331
:1006600042F80830A2684B6842EA0A0740F20C4E92
:10067000DD0258BF22EA0A07A760C4F2010EDEF8C5
:1006800000209D0242EA0A0758BF22EA0A07CEF874
:10069000007062689D0342EA0A0758BF22EA0A070F
:1006A00067602268DB0342EA0A0758BF22EA0A07AA
:1006B00027604BE705B000F000B830BCBDE8C08F44
:1006C0001823002A08BF2823C150704745F2802014
:1006D000C2F200000068704740F2040045F2802139
:1006E000C2F20000C2F2000100780A6810440860FB
:1006F0007047000080B5032000F090F80F2000F054
:1007000009F800281CBF012080BD00F059F8002026
:1007100080BD0000B0B586B041F25801C4F20201BC
:100720000A68044642F020020A60096801A801F044
:10073000200101910199694600F040FB049D002DC4
:1007400018BF012500F062FB4DF68361A840C4F29A
:100750001B31A0FB01014FF0FF3000EB914140F253
:10076000081041F20042C2F20000C4F2000240F25E
:10077000E7330025C0E90021C0E902530561856126
:1007800000F0A2FF0546C0B940F20810C2F2000016
:1007900000F0EEFF054680B9372000F02BF80F2C53
:1007A0000AD837202146002200F028F840F208003D
:1007B000C2F20000046000E00125284606B0B0BD8A
:1007C00082B041F25800C4F20200816841F0010198
:1007D0008160816801F0010101910199016841F096
:1007E00080510160006800F080500090009802B0D5
:1007F0007047000080B502F0EDF980BD70B5144679
:100800000D46064602F0F6F92946224601F0F0FBB5
:100810000146304602F0F6F970BD000080B502F0E6
:1008200003FA80BD47F20001C4F200010A68B0F586
:10083000007F02F4C06026D1B0F5007F21D00868A7
:10084000012262F34A20086040F20000C2F2000078
:100850000068322358434DF68363C4F21B33A0FB78
:10086000030302EB934000BF4B69421E824203D256
:1008700013F480601046F7D14869400544BF032057
:10088000704700207047B0F5806FFAD008680222E8
:1008900062F34A20086000207047000047F2000021
:1008A000C4F20000006800F4C06070472DE9F04712
:1008B00082B00446407841F288070007C4F202077C
:1008C00002D44FF0000A35E0606E4FEAB0500328C2
:1008D0000ED84FF0000ADFE800F002111C17201DAF
:1008E000002101F0DBFB8246BAF1000F0FD11BE0C3
:1008F0004FF0010ABAF1000F09D115E004F1200010
:10090000002101F093FC8246BAF1000F0CD0D046D2
:1009100012E057F87C0C4FF0000A40F4803047F8A2
:100920007C0CBAF1000FF2D13868616E20F44000FF
:10093000084338604FF000086078C00631D5A06EDB
:100940004FEA306003280CD8DFE800F002111C17D2
:10095000201D002101F0A2FB8246BAF1000F0FD149
:1009600019E04FF0010ABAF1000F09D113E004F1C8
:100970002000002101F05AFC8246BAF1000F0AD093
:10098000D0460EE057F87C0C40F4803047F87C0CE1
:10099000BAF1000FF4D13868A16E20F0407008431E
:1009A0003860A078800701D4C24665E057F8300C63
:1009B00010F080590BD157F8300C40F0805047F8B8
:1009C000300C57F8300C00F080500190019847F23D
:1009D0000005C4F20005286840F480702860FFF725
:1009E00075FE06462868C00506D4FFF76FFE801B1B
:1009F0000328F7D34FF0030ABAF1000F33D1B868D8
:100A000010F4407012D0D4F8801088420BD0B8682F
:100A1000B96820F4407041F48031B960B96821F4BC
:100A20008031B960B860C00703D111E00020C00771
:100A30000ED0FFF74BFE064641F28935B8688007B5
:100A400006D4FFF743FE801BA842F7D34FF0030AFA
:100A5000BAF1000F07D1B868D4F8801020F44070C4
:100A60000843C246B860B9F1000F05D157F8300C01
:100A700020F0805047F8300C2068C10716D181075C
:100A80001CD4410722D4010728D4C1062ED48106E4
:100A900034D481053AD4410540D4410646D40106F8
:100AA0004CD4C10552D4000358D471E03968A26B0C
:100AB00021F00301114339608107E2D53968E26B07
:100AC00021F00C01114339604107DCD53968226CF3
:100AD00021F03001114339600107D6D53968626CC5
:100AE00021F0C00111433960C106D0D53968A26C2C
:100AF00021F44071114339608106CAD53968E26C2E
:100B000021F44061114339608105C4D53968E26D33
:100B100021F44021114339604105BED53968226E68
:100B200021F44011114339604106B8D53968226D6E
:100B300021F44051114339600106B2D53968626D24
:100B400021F4404111433960C105ACD53968A26D2B
:100B500021F4403111433960000319D53968E06E42
:100B600021F040610143B0F1806F396009D0B0F1EC
:100B7000006F0DD157F87C0C40F4801047F87C0CC6
:100B800006E0201D012101F089FA002818BF8246E5
:100B9000A078400719D53968206F21F040610143E2
:100BA000B0F1806F396009D0B0F1006F0DD157F806
:100BB0007C0C40F4801047F87C0C06E0201D0121DD
:100BC00001F06CFA002818BF82466078400618D5FC
:100BD0003968606F21F040510143B0F1005F396026
:100BE00007D0B0F1805F0CD1201D022101F056FA30
:100BF00004E004F12000022101F018FB002818BFD6
:100C000082462068010405D53968A26F21F0804131
:100C100011433960C00305D53868E16F20F000400A
:100C200008433860504602B0BDE8F0872DE9F04334
:100C300081B0002800F0918042F20008C4F202085E
:100C40000446D8F800000D4600F0070088420CD298
:100C5000D8F8000020F007002843C8F80000D8F8B2
:100C6000000000F00700A84277D1206841F208098F
:100C70008107C4F202090DD5A168D9F8002002F05D
:100C8000F002914206D9D9F8002022F0F002114377
:100C9000C9F80010C00756D1206881070DD5A1689A
:100CA000D9F8002002F0F002914206D2D9F80020D3
:100CB00022F0F0021143C9F80010D8F8001001F03A
:100CC0000701A9420CD9D8F8001021F007012943E7
:100CD000C8F80010D8F8001001F00701A9423CD173
:100CE000410707D5D9F80010E26821F4E06111430B
:100CF000C9F80010000708D5D9F80000216920F4D0
:100D0000605040EAC100C9F8000000F0A7F8D9F827
:100D1000001043F61412C1F30311C0F60002515C37
:100D200040F2000201F01F0120FA01F140F2080038
:100D3000C2F200000068C2F200021160FFF7EAFC94
:100D400001B0BDE8F083606858B102282CD00328B8
:100D50002FD159F8081C890107D4012001B0BDE842
:100D6000F08359F8081C8907F7D5D9F8001021F04D
:100D700003010843C9F80000FFF7A8FC064641F24A
:100D8000883700BFD9F80000616800F00C00B0EBB4
:100D9000810F3FF481AFFFF799FC801BB842F1D976
:100DA000032001B0BDE8F08359F8081C8903D4D5AD
:100DB000DBE759F8081C4905CFD5D6E70F220260BA
:100DC00041F20802C4F20202136803F00303436015
:100DD000136803F0F0038360136803F4E063C360F7
:100DE00012684FF4E06303EAD202026142F20000AB
:100DF000C4F20200006800F00700086070470000BD
:100E000040F20000C2F200000068704780B5FFF7B2
:100E1000F7FF41F20801C4F20201096843F6241207
:100E2000C1F30221C0F60002515C01F01F01C8406D
:100E300080BD000080B5FFF7E3FF41F20801C4F276
:100E40000201096843F62412C1F3C221C0F6000270
:100E5000515C01F01F01C84080BD000041F20C014F
:100E6000C4F2020151F8040C10F00C02086805D01D
:100E70000C2A40D100F0030001283CD151F80C0CA1
:100E8000000703D4D1F88800000A02E051F80C0CE6
:100E9000000943F62C1300F00F00C0F6000353F8CE
:100EA0002030002A184618BF00200C2A18BF7047AF
:100EB000086800F00300022806D0032804BF41F2AE
:100EC0000023C0F27A0303E042F20043C0F2F403CD
:100ED00008680A68C0F30210C2F3062209680130EC
:100EE0005A43B2FBF0F0C1F34161022202EB41012F
:100EF000B0FBF1F07047042A07D0082A0BD141F269
:100F000000200023C0F27A00CFE742F20040002325
:100F1000C0F2F400C9E700200023C6E72DE9F04342
:100F200081B0002800F0178241F200060446C4F2A6
:100F30000206B068F168227800F00C09D00601F0D2
:100F400003081DD42078C00700F0EF80B9F1080F26
:100F500045D0B9F10C0F08BFB8F1030F3FD0656859
:100F6000B5F5A02F00F0BC80B5F5803F00F0BC8047
:100F7000306820F480303060306820F48020B6E0A3
:100F8000B9F1000F1CD0B9F10C0F08BFB8F1010F77
:100F900016D0A1693068002978D040F00100306097
:100FA000FFF794FB054600BF3068800700F18080A2
:100FB000FFF78CFB401B02284FF00300F4D912E22C
:100FC0003068800703D5A069002800F0C481206A3A
:100FD000316809070CD4D6F89410090909E0306883
:100FE000800340F1A2806068002840F09E80B2E15A
:100FF000316801F0F001884216D901F0C7F90028E4
:1010000040F0A981306840F0080030603068D4E9D1
:10101000072120F0F00008433060706820F47F4022
:1010200040EA0220706013E03168B9F1000F41F02E
:1010300008013160316821F0F00141EA00013160BE
:101040007168E26921F47F4141EA0221716041D077
:10105000FFF704FFB16843F61412C1F30311C0F6A1
:101060000002515C40F2000201F01F0120FA01F180
:1010700040F20800C2F200000068C2F200021160F3
:10108000FFF748FB002840F0AE815BE720F001004D
:101090003060FFF71BFB0546306880077FF552AFD5
:1010A000FFF714FB401B02284FF00300F4D99AE12C
:1010B000306840F0080030603068D4E9072120F043
:1010C000F00008433060706820F47F4040EA02205E
:1010D000706037E701F05AF9002840F03C81B7E72B
:1010E000306840F480203060306840F480303060F8
:1010F000FFF7ECFA002D054614D000BF30688003DE
:1011000013D4FFF7E3FA401B64284FF00300F5D92E
:1011100069E100BFFFF7DAFA401B64284FF00300D3
:1011200000F2618130688003F4D4207880072CD5E8
:10113000B9F1040F1BD0B9F10C0F08BFB8F1020FC1
:1011400015D0E1683068002900F03C8140F48070DF
:101150003060FFF7BBFA0546306840050ED4FFF754
:10116000B5FA401B02284FF00300F5D93BE1306887
:10117000400503D5E068002800F0ED807068216923
:1011800020F0F85040EA01607060207800075ED4DB
:101190002078400775D4A06A002800F02E8102282C
:1011A00040F0B980F068E16A00F003028A4240F042
:1011B000C880226B6FF00F0300F0700103EB021286
:1011C000914240F0BE80616B00F4FE42B2EB012F11
:1011D00040F0B780A16B00F40032073918BF01213D
:1011E0008A4240F0AE80E26B0023CFF6E07303EB5F
:1011F000025200F4C0016FF31402914240F0A1804A
:10120000216C4FF07E4202EB016100F0C06001F002
:101210007E41884240F095803068800100F1ED8089
:10122000306840F080703060F06840F08070F060AE
:10123000FFF74CFA04463068800100F1DE80FFF7CA
:1012400045FA001B02284FF00300F4D9CBE0616996
:10125000D6F8940000294AD040F00100C6F8940066
:10126000FFF734FA054600BFD6F8940080078FD404
:10127000FFF72CFA401B0228F6D9032001B0BDE885
:10128000F083B06D10F0805808D1B06D40F0805000
:10129000B065B06D00F080500090009847F20007F4
:1012A000C4F200073868C00511D4386840F4807073
:1012B0003860FFF70BFA05463868C00507D4FFF71A
:1012C00005FA401B02284FF00300F5D98BE0A56812
:1012D000052D44D0012D48D0D6F8900020F0010013
:1012E000C6F89000D6F8900020F0040041E020F00D
:1012F0000100C6F89400FFF7E9F90546D6F8940016
:1013000080077FF545AFFFF7E1F9401B02284FF05A
:101310000300F3D967E0B9F10C0F1CD0306820F05E
:1013200080703060FFF7D2F9044600BF306880015A
:101330005CD5FFF7CBF9001B02284FF00300F5D96D
:1013400051E0B9F10C0F06D0306840015CBF306845
:101350005FEAC00055D5012001B0BDE8F083D6F8A2
:10136000900040F00400C6F89000D6F8900040F0DD
:101370000100C6F89000FFF7A9F9002D054641F2DB
:10138000883712D0D6F89000800712D4FFF79EF964
:10139000401BB8424FF00300F4D924E0FFF796F960
:1013A000401BB8424FF003001DD8D6F890008007CC
:1013B000F4D4B8F1000F7FF4EEAEB06D20F08050A1
:1013C000B065E8E620F480703060FFF77FF90546ED
:1013D000306840057FF5D9AEFFF778F9401B022849
:1013E0004FF00300F4D901B0BDE8F083F0684FF688
:1013F000FC71CFF6EE610840F060002001B0BDE85E
:10140000F083306820F080703060FFF75FF90546A8
:101410003068800107D5FFF759F9401B02284FF0CB
:101420000300F5D9DFE7F06848F28C01CFF69D1193
:1014300004F12C0700EA010C8ECFD4E90F546FF0B1
:101440000F0040F2000E00EB0210CFF6E07E41EA02
:101450000C010EEB05554FF07E4208436FF3140567
:1014600002EB046240EA032002F07E420EF5F01423
:10147000284304EA473710433843F060306840F0AF
:1014800080703060F06840F08070F060FFF71EF907
:10149000044630688001B0D4FFF718F9001B022819
:1014A0004FF00300F5D99EE7002804BF01207047E4
:1014B000B0B50446406A20B10020206104F1140058
:1014C00005E06068B0F5827F03D004F11C000021C4
:1014D00001600025A56294F85D0020B9204684F8DB
:1014E0005C5000F04FF8022084F85D002068D4F8CA
:1014F0000CE00268BEF5E06F22F0400202604EF49C
:10150000006298BF0125B2F5706F1CBF0023A36273
:101510004FEA053CD4E90135D4E9042103F4827390
:1015200005F404452B4402F002021A44A36901F0B9
:101530000101E569114403F40072114405F0380219
:10154000256A114405F08002A56A114405F4005291
:10155000114301600421626A0EF4706501EA1341CF
:10156000636B45EA0C0502F01002294303F00803FF
:1015700011431943416000200121206684F85D1069
:10158000B0BD000080B586B0006843F60002C4F22A
:10159000000200219042CDE90411CDE90211019130
:1015A00001D006B080BD41F24C00C4F20200C26816
:1015B00042F48042C260C26802F480420092009A03
:1015C000026842F002020260006800F0020000902F
:1015D00000984FF4604001900220CDE90201032001
:1015E00004900520059040F20040C4F6000001A9D7
:1015F000FEF78AFF06B080BD70470000704700000C
:101600007047000010B590F83C20012A4FF002020C
:1016100057D0012380F83C3080F83D20026843F227
:10162000004C5368D2F808E0C4F2010C624505D0C2
:1016300042F60044C4F20104A24203D14C6823F4F0
:10164000700323430C6823F07003234340F6FF34F8
:10165000C4F20004A242536010DD43F2FF33C4F22F
:1016600001039A421ADC40F60043C4F200039A4296
:101670001CD042F60043C4F201030CE0B2F1804FEB
:1016800014D040F20043C4F200039A420ED040F658
:101690000003C4F200039A4208D00CE044F20003B5
:1016A000C4F201039A4201D0624504D189682EF048
:1016B0008003194391600121002280F83D1080F8D9
:1016C0003C20104610BD0000002804BF01207047D8
:1016D00010B5044690F83D0028B9002084F83C007D
:1016E000204600F023F8022084F83D002068211DE8
:1016F00000F01CFF012084F8480084F83E0084F8C4
:101700003F0084F8400084F8410084F8420084F8E7
:10171000430084F8440084F8450084F8460084F8C7
:10172000470084F83D00002010BD000080B582B065
:10173000006841F20001C4F20001884201D002B009
:1017400080BD41F25800C4F202000168002241F05D
:10175000100101600068042100F010000190019860
:101760003620FFF74BF83620FFF744F802B080BD73
:1017700090F83D1001291CBF01207047022180F81C
:101780003D10016840F6FF32C868C4F20002914281
:1017900040F00100C8600EDD43F2FF30C4F20100EA
:1017A000814218DC40F60040C4F2000081421ED0A5
:1017B00042F6004017E0B1F1804F18D040F20040EF
:1017C000C4F20000814212D040F60000C4F20000D2
:1017D00081420CD01EE044F20000C4F201008142BC
:1017E00005D043F20040C4F20100814212D1886862
:1017F0000722C0F201020240062A4FF000000ED07C
:10180000B2F5803F08BF7047086840F001000860EB
:1018100000207047086840F0010008600020704711
:1018200070470000F0B581B004460068C7680669DB
:1018300006EA0705A90727D4680756D428076CD4F9
:10184000E80600F18280E80706D020686FF0010109
:101850000161204600F098F817F0800718BF16F4D1
:10186000025006D020686FF4025101612046FFF754
:10187000C5FE002F18BF16F4807011D1680618D469
:10188000A8061FD401B0F0BD6FF002010161012173
:101890002177806980071ED02046FFF7C1FF20E036
:1018A00020686FF4807101612046FFF7A5FE68068D
:1018B000E6D520686FF040010161204600F070F825
:1018C000A806DFD520686FF0200101612046FFF7F0
:1018D00097FE01B0F0BD204600F052F8204600F01F
:1018E00051F8002020776807A8D520686FF0040120
:1018F000016102212177806910F4407F03D02046E6
:10190000FFF78EFF05E0204600F03AF8204600F091
:1019100039F800202077280792D520686FF0080159
:10192000016104212177C069800703D02046FFF7B9
:1019300077FF05E0204600F023F8204600F022F86B
:1019400000202077E8067FF57EAF20686FF0100159
:10195000016108212177C06910F4407F03D020463F
:10196000FFF75EFF05E0204600F00AF8204600F091
:1019700009F800202077E8077FF467AF6CE70000E4
:10198000704700007047000080B5006841F20041D8
:10199000C4F20001884208BFFEF79EFE80BD000031
:1019A000704700007047000070470000704700005B
:1019B000B0B50446006840F62F03C1690268856827
:1019C0000B40202B02F0200E07D1BEF1000F04D0F7
:1019D000A16E99B320468847B0BD40F60F03194267
:1019E00013D040F22013C0F2004305F0010C134065
:1019F00013EB0C0309D0CB0718BF12F4807340F02F
:101A0000A7808B0700F1AE80B7E0D4F860C00A4031
:101A1000D3063CD5BCF1010F39D110210162806899
:101A2000400640D4B4F85800B4F85A10B4F85A201C
:101A3000002A1CBF401A5FEA004101D1B0BD00BFBF
:101A4000216851E8001F226821F4907142E80013D8
:101A5000002BF5D1216851E8021F226821F0010115
:101A600042E80213002BF5D12021C4F88010002198
:101A70002166A166216851E8001F226821F010014B
:101A800042E80013002BF5D10221616654E0C9023F
:101A900054D515F4800151D04FF4801101622046D5
:101AA000FFF782FFB0BD606F006841688AB2002A0C
:101AB00000F0C480B4F858309A4280F0BF80A4F897
:101AC0005A100068800630D4206850E8000F216862
:101AD00020F4807041E80002002AF5D1206850E827
:101AE000020F216820F0010041E80202002AF5D12E
:101AF000206850E8020F216820F0400041E802020F
:101B0000002AF5D12020C4F880000020206600BF04
:101B1000206850E8000F216820F0100041E8000222
:101B2000002AF5D1606FFEF7D5FB02206066B4F89D
:101B30005800B4F85A10401A81B28AE0100600F139
:101B40009780500658BFB0BD204600F089FEB0BD5A
:101B500001230362D4F8843043F00103C4F88430D5
:101B60008B070AD5BCF1000F07D002230362D4F81B
:101B7000843043F00403C4F884304B070AD5BCF129
:101B8000000F07D004230362D4F8843043F002032B
:101B9000C4F884300B070AD55CEA0E0307D008238B
:101BA0000362D4F8843043F00803C4F884300B0592
:101BB0000BD512F0806308D04FF400630362D4F8B1
:101BC000840040F02000C4F88400D4F88400002889
:101BD0003FF434AF02EA0100800603D5A16E09B1DB
:101BE000204688472068D4F88410806801F02801D6
:101BF00000F04000401834D0204600F007FE206876
:101C00008068400629D500BF206850E8020F21688F
:101C100020F0400041E80202002AF5D1606FE0B1F7
:101C200042F60101C0F600018163FEF779FB00284E
:101C30003FF404AF606F816B8847B0BDB4F85810B3
:101C400091427FF4FBAE006880067FF5F7AE02207C
:101C500060662046FFF7A6FEB0BD2046FFF7A6FE51
:101C6000B0BD2046FFF7A2FE0020C4F88400B0BD3E
:101C7000E16E00297FF4AEAEE0E6000010B5C8B119
:101C80000446C06F28B9002084F87800204600F090
:101C900025F82420E0672068616A026822F00102CA
:101CA000026011B1204600F0D9FC204600F0ECFDA6
:101CB000012801D1012010BD2068416821F4904124
:101CC0004160816821F02A018160016841F00101D1
:101CD0000160204600F036FD10BD0000F0B5A7B051
:101CE0000446002501A884212695CDE92455CDE997
:101CF0002255FEF7A0FA206843F60001C4F2010164
:101D0000884201D027B0F0BD0120019001A80F95B5
:101D1000FEF7CCFD002818BFFEF7D6FA41F24C00C2
:101D2000C4F202004169022641F4804141614169E7
:101D3000002701F4804100910099016841F0010100
:101D40000160006822A900F00100009000984FF4A3
:101D5000C060229003202590072026904FF09040ED
:101D600023962497FEF7D0FB40F210055820C2F2CC
:101D70000005C4F202008021202285E8C100284627
:101D8000C5E90371C5E90577C5E90727FEF752FBE9
:101D9000002818BFFEF798FA252005210022656764
:101DA000AC62FEF72BFD2520FEF724FD27B0F0BD29
:101DB00070470000FEE7000080B582B041F24800A5
:101DC000C4F202000168002241F0010101600068D4
:101DD000052100F00100019001980F20FEF70EFD93
:101DE0000F20FEF707FD02B080BD000080B582B075
:101DF0000120009042F251404FF0000CC0F600006C
:101E000006A14FF480720023CDF804C001F00AFC53
:101E1000012818BFFEF758FA02B080BD64656661FC
:101E2000756C745461736B002DE9F04387B0002624
:101E300041F24C000696CDE90466CDE90266C4F293
:101E40000200016840F2004441F0040101600168B1
:101E5000C4F6000401F00401019101990168012216
:101E600041F08001016001684FF4805501F080016C
:101E7000019101990168012741F0020101600168A7
:101E800001F0020101910199016841F00101016035
:101E9000016801F0010101910199016841F0080117
:101EA000016000684FF4805100F008000190019833
:101EB0002046FEF705FC0DF10808CDE90257022780
:101EC0002046414604960597FEF71EFB4FF44060FE
:101ED000CDE902074FF00309072504F5806041466C
:101EE0000496CDF814900695FEF70EFB6020CDE920
:101EF000020704F500604146CDE904690695FEF746
:101F000003FB07B0BDE8F08310B540F2580043F67C
:101F10000001C2F20000C4F200014FF482720023FB
:101F20004FF4E06C4FF4007E082480E80E10072187
:101F3000C0E90433C0E906E4C0E90833C0E90A3166
:101F4000C0E90C34FFF7B0FA002818BFFEF7BCF95F
:101F500010BD000010B584B040F2BC0041F2000199
:101F6000C2F20000C4F2000100244F2240F2E73325
:101F700080E8160080210394CDE90144C3608161AB
:101F8000FFF7A2FB002818BFFEF79EF940F2BC0045
:101F9000C2F2000001A901940394FFF733FB00286B
:101FA00018BFFEF791F904B010BD000080B540F2F3
:101FB000541043F60001C2F20000C4F201010023F4
:101FC0004FF00C0C4FF4E13280E80E00C0E903330F
:101FD000C0E905C3C0E907334362FFF74FFE00289D
:101FE00018BFFEF771F980BDFEE70000FEE70000B4
:101FF00000F0070080F00703042B28BF04234FF0F4
:10200000FF3C03380CFA03F338BF002099438140AA
:102010000CFA00F022EA00000843704700000000BC
:10202000EFF30980BFF36F8F154B1A681EF0100F86
:1020300008BF20ED108A20E9F04F10604DF8043DF4
:102040004FF0500080F31188BFF34F8FBFF36F8FB5
:1020500001F024FA4FF0000080F311885DF8043B92
:102060001968086800F00EB81EF0100F08BF00F0E5
:102070000EB880F30988BFF36F8F704700BF00BFB1
:10208000DC01002030C8B0E8C04FFFF7EDBFB0EC76
:10209000088AB0EC08CAFFF7ECBF00002DE9F04158
:1020A00041F20004C4F20204E2680E469107804641
:1020B00013D0E168D8F8000001F0030181420AD191
:1020C00048B1E068D8F80410C0F30210013088422B
:1020D00001D100253AE0012538E0D8F800000328B6
:1020E0000DD0022819D0012821D12168012301F047
:1020F0000202C1F3400183EA5205D9B926E0216802
:1021000089034FF0010149D4226802F4802381EA57
:102110009345C2F3804169B918E02168012301F4B5
:102120008062C1F3802183EA922519B90EE001256E
:10213000002159B1E168D8F8042021F073016FF053
:102140000F0303EB021208431043E06015B1284669
:10215000BDE8F081206820F080602060FEF7B6FACC
:10216000074600BF2068000105D5FEF7AFFAC01B87
:102170000328F7D30325002DE9D1012E12D02EBB61
:10218000206948F2FF01CFF6FD710140D8E9022035
:102190000023CFF6FE7303EA403027E00025002934
:1021A000C8D1D3E748F2FF012069CFF6FF1101F152
:1021B000B4610140D8F810000023CFF6E073D8F8DE
:1021C000082003EB00506FF314000FE0206948F281
:1021D000FF01CFF6FF110140D8F814004FF07E4305
:1021E000D8F8082003EB006000F07E4041EA0221AD
:1021F00008432061206840F080602060FEF766FAA6
:10220000064600BF2068000105D4FEF75FFA801B78
:102210000328F7D30325002D99D1D8F81800216998
:10222000084320612846BDE8F08100002DE9F04117
:1022300041F20004C4F20204E2680E4691078046AF
:1022400013D0E168D8F8000001F0030181420AD1FF
:1022500048B1E068D8F80410C0F302100130884299
:1022600001D100253AE0012538E0D8F80000032824
:1022700017D002280BD0012821D12168012301F0B9
:102280000202C1F3400183EA5205D9B926E0216870
:10229000012301F48062C1F3802183EA922589B988
:1022A0001CE0216889034FF001016AD4226802F41E
:1022B000802381EA9345C2F3804119B90EE00125DC
:1022C000002159B1E168D8F8042021F073016FF0C2
:1022D0000F0303EB021208431043E06015B12846D8
:1022E000BDE8F081206820F080502060FEF7EEF914
:1022F000074600BF2068800005D5FEF7E7F9C01B40
:102300000328F7D30325002DE9D160697EB148F297
:10231000FF01CFF6FF110140D8F810004FF07E43C7
:10232000D8F8082003EB006000F07E400BE048F294
:10233000FF01CFF6FD710140D8E902200023CFF65E
:10234000FE7303EA403041EA0221084360612068DD
:1023500040F080502060FEF7B9F906462068800002
:1023600005D4FEF7B3F9801B0328F7D30325002D0E
:10237000B5D1D8F814006169084360612846BDE80A
:10238000F081002500299DD1A8E70000B0B582B0FA
:1023900041F25805C4F2020529680446C90015D463
:1023A000286840F080502860286800F08050019034
:1023B0000198FEF773FA296821F080512960B0F581
:1023C000007F08D0802C0DD9032015E0FEF766FAB7
:1023D000B0F5007FF6D1812C0DD30120A02C88BF51
:1023E000022009E0A4F17000B0FA80F04009802CCE
:1023F00008BF022000E0002042F20001C4F2020106
:102400000A6822F0070202440A60096801F0070125
:10241000081A18BF012002B0B0BD00000000000083
:10242000074B1968086800F00DB880F30988BFF3FE
:102430006F8F4FF0000080F31188704700BF00BF1E
:10244000DC01002030C8B0E8C04FFFF7EEBF00004D
:102450004FF47A7000F0B6FFFAE7000080B54FF055
:10246000500080F31188BFF36F8FBFF34F8F01F0DF
:1024700009F930B14EF60450CEF200004FF0805111
:102480000160002080F3118880BD000010B596B077
:1024900005A84421FDF7CFFE00200490CDE90200FD
:1024A000CDE900004FF40070FEF7BCF910BB01202D
:1024B000032405904FF48031CDE91040142006919B
:1024C000022112900720CDE9130105A80F91159163
:1024D000FEF724FD70B90F20CDE900040020CDE9FE
:1024E0000200049068460421FEF7A0FB002804BF08
:1024F00016B010BDFDF7E8FE4EF68850CEF2000093
:10250000016841F4700101607047000080B540F23D
:10251000BC00C2F20000FFF785F980BD80B540F233
:102520000810C2F20000FFF77DF980BD80B540F6CB
:10253000FF32D0F800C0C4F2000290420FDCB0F1CC
:10254000804F1ED040F20042C4F20002904218D0E8
:1025500040F60002C4F20002904212D016E040F6AB
:102560000042C4F2000290420BD043F20042C4F297
:102570000102904205D042F60042C4F201029042AC
:1025800004D14A682CF0700342EA030C42F6FF3291
:10259000C4F20102904214DD43F6FF72C4F201025C
:1025A00090421ADD44F20002C4F2010290422DD0A2
:1025B00044F60002C4F20102904227D044F20042E5
:1025C00013E040F2FF72C4F20002904212DCB0F15C
:1025D000804F1BD040F2004214E042F60042C4F2A9
:1025E0000102904212D043F20042C4F20102904232
:1025F0000CD010E040F60002C4F20002904205D078
:1026000040F60042C4F20002904204D1CA682CF4A1
:10261000407342EA030C8A680B68D1F814E0C26286
:10262000A0F18042A2F596324FEAB222072A8362D5
:1026300007D8012303FA02F212F0E50F1CBF096963
:10264000016302682CF0800142F0040241EA0E01AD
:10265000026001224261016080BD000080B5416AD4
:102660000A070CD4CA0715D18A071ED44A0727D4F3
:10267000CA0630D48A0639D44A0657D541E00268E2
:10268000D0F834C0536823F4004343EA0C0353608A
:10269000CA07E9D00268D0F828C0536823F4003391
:1026A00043EA0C0353608A07E0D50268D0F82CC0D7
:1026B000536823F4803343EA0C0353604A07D7D5A9
:1026C0000268D0F830C0536823F4802343EA0C0337
:1026D0005360CA06CED50268D0F838C0936823F498
:1026E000805343EA0C0393608A06C5D50268D0F88C
:1026F0003CC0936823F4005343EA0C0393604A06FA
:1027000014D50268D0F840C05368BCF5801F23F48C
:10271000801343EA0C03536008D1D2F804C0D0F808
:1027200044E02CF4C00343EA0E035360090658BF8B
:1027300080BD0168806C4A6822F400221043486022
:1027400080BD0000B0B582B004460020C4F884000B
:10275000FDF7BCFF21680546096809071AD56FF027
:102760007E4C20464FF4001100222B46CDF800C0CD
:1027700000F0C4F970B100BF206850E8000F216874
:1027800020F0800041E80002002AF5D12020E06717
:1027900003202FE020680068400724D56FF07E4CAE
:1027A00020464FF4800100222B46CDF800C000F0F7
:1027B000A5F9C0B1206850E8000F216820F490709E
:1027C00041E80002002AF5D1206850E8020F216894
:1027D00020F0010041E80202002AF5D12020C4F8CF
:1027E0008000032006E02020E067C4F8800000207D
:1027F00020666066002184F8781002B0B0BD000049
:1028000080B5806AFFF7D2F880BD0000016851E80A
:10281000001F026821F4907142E80013002BF5D1EB
:10282000016851E8021F026821F0010142E8021329
:10283000002BF5D1016E01290AD100BF016851E8D2
:10284000001F026821F0100142E80013002BF5D1AF
:102850002021C0F8801000210166816670470000C9
:1028600080B500BF016851E8001F026821F04001F7
:1028700042E80013002BF5D12021C1670021C16679
:10288000FFF796FA80BD000070B504462269D4E9CE
:102890000213006866690A43E1693243066846F636
:1028A000F315CEF6FF750A432E40324302604268AC
:1028B00022F440521A43426048F20002A369C4F273
:1028C000000290421CBF266A3343866826F43066B5
:1028D0003343836044F6FF73C4F2000398424FF021
:1028E000100318DC44F20046C4F20006B04227D0C0
:1028F00044F60006C4F20006B04228D044F6004672
:10290000C4F20006B0423BD141F28803C4F2020394
:102910001B689B092FE045F20006C4F20006B04296
:102920001CD0904221D043F60006C4F20106B0420A
:1029300026D141F28803C4F202031B686BA61BE098
:1029400041F28803C4F202031B689B0813E041F2C2
:102950008803C4F202031B681B090CE041F28803E0
:10296000C4F202031B681B0A05E041F28803C4F2AB
:1029700002031B689B0A59A603F0030356F8233091
:10298000904242F20040C0F2F40011D0B1F5004F85
:102990001DD1082B00F25C800025DFE803F005550F
:1029A00063595C59595960000025FEF72FFA59E028
:1029B000082B1AD80026DFE803F005181F181C188A
:1029C00018183E000026FEF721FAB0B938E0082BAF
:1029D00064D80025DFE803F0055E6C626562626220
:1029E00069000025FEF712FA62E00020012620B9F6
:1029F00026E00026FEF732FA10B36268012502EBEA
:102A00004201884265D31103884262D8010E000258
:102A100010EB520041F100010023FDF7D1FB4FF60E
:102A2000FF42A0F54071C0F20F0291420AD821681E
:102A30003546C8604DE04FF4004000260028DCD148
:102A4000354646E0012544E00025FEF7F3F909E0AC
:102A50000020012506E00025FEF700FA02E04FF411
:102A600000400025A8B361684A0802EB4000B0FBB3
:102A7000F1F04FF6EF72A0F11001914208D84FF635
:102A8000F0710140C0F3420022680844D06020E0A9
:102A900001251EE00025FEF7CDF909E00020012503
:102AA00006E00025FEF7DAF902E04FF400400025C9
:102AB00078B161684FF6EF7200EB5100B0FBF1F0B6
:102AC000A0F11001914203D8216880B2C86000E0F3
:102AD000012500212846A166E16670BD00000000C6
:102AE00004000000020000000800000001000000D7
:102AF0000400000002000000080000002DE9F0437F
:102B000081B004460068C0690840401AB0FA80F0FD
:102B1000400990423DD1DDF8208015460E46994689
:102B200008F1010709E000BF2068C0693040801B40
:102B3000B0FA80F04009A8422FD1002FF4D0FDF761
:102B4000C5FD0146B8F1000F4FF0030026D0A1EB00
:102B50000901414522D8206801684907E4D5402E83
:102B6000E2D0802EE0D0C16909071AD4C1690905F5
:102B7000DAD54FF4006101622046FFF747FE2020BE
:102B8000C4F88400002084F87800032001B0BDE878
:102B9000F083002001B0BDE8F083002001B0BDE863
:102BA000F083082505622046FFF730FE0020C4F8B8
:102BB000845084F87800012001B0BDE8F083000063
:102BC00080B540F25410C2F20000FEF7F1FE80BD65
:102BD000FEE70000002848BF704700F01F010122F7
:102BE00002FA01F14EF200124009CEF2000242F860
:102BF000201070474EF60C50CEF200000068C0F373
:102C0000022070474EF6145300F00F02CEF200037C
:102C100009011A4400F16043B0F1FF3FC8BF03F55A
:102C200064421170704700004EF60C51CEF2000164
:102C30000A684FF6FF031A4060F30A2242F08060F0
:102C400040F0FD7008607047FDF754FDFFF71EFC73
:102C5000FFF7EAF8FFF7B0F8FFF7A8F9FFF77AF9FE
:102C6000FFF752F9FFF7C2F800F0D0FBFDF72CFB9D
:102C7000F0B581B00D4645F2243140F2DC16C2F2C7
:102C80000001C2F200060F6831680446081D00F01A
:102C9000AFFA10B1601C0FD019E0306845F29822ED
:102CA000C06AC2F200020121136801FA00F023EAAF
:102CB00000001060601C0AD14DB13068011D45F262
:102CC000FC20C2F2000000F0E7FA01B0F0BD30686D
:102CD000E41944600AD340F2E810C2F20000006830
:102CE0003168043100F0BAFA01B0F0BD40F2E010F2
:102CF000C2F2000000683168043100F0AFFA45F21A
:102D0000D420C2F2000001688C4238BF046001B0D8
:102D1000F0BD000070B5044600F0D6FA45F28420FC
:102D2000C2F20000016840F2DC1501310160C2F21C
:102D30000005296845F2F026C2F2000641B130686C
:102D400060B92868E16AC06A884298BF2C6005E0D3
:102D50002C600068012801D100F004F945F29420AC
:102D6000C2F20000016845F2982201310160E06A78
:102D7000C2F200020121136881401943116040F240
:102D8000EC1100EB8000C2F2000101EB8000211D7C
:102D900000F082FA00F0B6FA306880B12868E16A83
:102DA000C06A884228BF70BD4EF60450CEF20000C3
:102DB0004FF080510160BFF34F8FBFF36F8F70BD35
:102DC000F0B581B045F28825C2F20005286828B325
:102DD00045F2103645F28427C2F20006C2F200071F
:102DE00002E000BF2868C8B100F050FB346800F072
:102DF000F9FC002CF6D000F067FAF068C468201DDA
:102E000000F0F6F938680138386028680138286021
:102E100000F078FA204600F003F8E3E701B0F0BDD7
:102E200010B50446006B00F081FA204600F07EFAEF
:102E300010BD000040F27820C2F20000C21D22F056
:102E4000070210F0070CA0EB020318BF104645F272
:102E5000F422C2F200020021C2E900014FF4A042B4
:102E6000BCF1000F18BF03F5A0420244083A40F23B
:102E7000E41322F00702C2F200031A60C2E9001153
:102E8000111A1A68C0E9002145F2D020C2F20000F0
:102E9000016045F2C820C2F20000016045F29C20AA
:102EA000C2F20000012101707047000040F2EC14F2
:102EB0004EF60455C2F20004CEF200054FF08056E3
:102EC000FFF77EFF20680228FAD32E60BFF34F8FF2
:102ED000BFF36F8FF4E700002DE9F0470A9C8246AC
:102EE000206B16460F46DDE908599100A522984649
:102EF000FDF79AF9206B00EB8600043820F00706F6
:102F0000002000BF395C221882F83410395C19B1F6
:102F10000F2800F10100F5D30027201D84F843702D
:102F2000062D28BF0625E562C4E9115700F092F985
:102F300004F1180000F08EF985F00700A06130461A
:102F40005146424624616462E76484F8507000F0A0
:102F50003BF9B9F1000F206018BFC9F80040BDE887
:102F6000F0870000B0B540F2EC150024C2F2000575
:102F7000281900F063F914348C2CF9D145F2A024FF
:102F8000C2F20004204600F059F945F2B425C2F21D
:102F90000005284600F052F945F2DC20C2F200009C
:102FA00000F04CF945F21030C2F2000000F046F992
:102FB00045F2FC20C2F2000000F040F940F2E010BF
:102FC000C2F20000046040F2E810C2F200000560A6
:102FD000B0BD000080B545F2F422C2F2000200BF8D
:102FE000114612688242FBD3D1F804C001EB0C03F6
:102FF000834203D14068604448600846D0F804C06A
:1030000000EB0C03934201D013460BE040F2E413B3
:10301000C2F200031B689A4204D0D2E9003E0EEBD4
:103020000C0242608142036018BF086080BD00004E
:1030300006480068006880F3088862B661B6BFF38E
:103040004F8FBFF36F8F00DF00BF00BF08ED00E0C0
:1030500040F2E010C2F200000168096821B1006886
:10306000C068C068406801E04FF0FF3045F2D421ED
:10307000C2F200010860704740F20C00C2F200008A
:103080000068013003D0EFF3108072B6FEE74FF016
:10309000500080F31188BFF36F8FBFF34F8F00BFD5
:1030A000FEE700002DE9F04381B0044600F0EEF9A0
:1030B00040F2E416C2F200063068002808BFFFF7AD
:1030C000B9FE45F29C29C2F2000999F800000028D7
:1030D00018BF4FF0004020420DD0002400F082FBCA
:1030E000002C08BF00F096F8600714D0EFF31080B2
:1030F00072B600BFFEE794B114F0070004F10801B6
:103100001EBF081A00F108015FEA417008D0EFF312
:10311000108072B6FEE7204601B0BDE8F0830021C2
:1031200045F2C828C2F20008D8F800004A1E8242C0
:10313000D3D245F2F420C2F2000005682F4657F8BA
:10314000042F8A4211D22B685BB100BF1F4657F88B
:10315000042F28461D468A4207D22B68002BF5D142
:1031600003E045F2F420C2F2000033689D42B4D07F
:1031700004682B68521A112A03600AD3681843079F
:1031800003D0EFF3108072B6FEE742603960FFF7BC
:1031900021FF45F2D0203968D8F80020C2F20000A3
:1031A0000368511A9942C8F8001038BF016099F8B5
:1031B00000000834396800284FF0000018BF41F0C3
:1031C00000413960286089E7034643F27900C0F680
:1031D00000004FF0807C21F0010103E903106FF043
:1031E000020043F8240CA3F1440043F8202C70475C
:1031F000D0E9013201699A60D1F804C0826884453F
:10320000536008BF4A600B6800220261581E0860C4
:10321000704700004FF0500080F31188BFF36F8FAC
:10322000BFF34F8FFEE700004FF0500080F311888E
:10323000BFF36F8FBFF34F8FFEE700004FF0FF31FA
:10324000024642F8081F0021C0E90322C0E900122B
:1032500070470000002101617047000080B5D1F87F
:1032600000C01CF1010207D000F108039E465B6814
:103270001A686245FAD901E0D0F810E0DEF80420BF
:1032800008614A6091600268C1F808E0CEF8041055
:10329000511C016080BD00004268D0F800C09368F6
:1032A0004A608B6093689160596008610CF101017C
:1032B00001607047DFF80C00016841F470010160A3
:1032C000704700BF88ED00E04FF0500080F3118898
:1032D000BFF36F8FBFF34F8F40F20C00C2F20000BC
:1032E00001684A1C026001B170474EF60450CEF2EC
:1032F00000000068000608BF7047EFF3108072B648
:10330000FEE7000040F20C00C2F20000016839B193
:103310000139016018BF7047002080F311887047A1
:10332000EFF3108072B600BFFEE70000B0B50028D2
:1033300008BFB0BD044645F29C20C2F200000078F0
:1033400054F8041C002818BF4FF00040084208D071
:10335000A4F108052A6842B1EFF3108072B600BFED
:10336000FEE7EFF3108072B6FEE721EA000044F8B2
:10337000040C00F08BF845F2C821C2F2000154F8A9
:10338000040C0A68104408602846FFF723FE00F08A
:1033900029FAB0BD40F20000C2F20000006844F615
:1033A000D351C1F26201A0FB01014FF0FF3000EBED
:1033B00091104EF21001CEF2000148600720086023
:1033C0007047000010B5A8B1044645F29020C2F243
:1033D0000000006818B1EFF3108072B6FEE700F04D
:1033E00055F820460021FFF743FC00F0FBF90028C8
:1033F00018BF10BD4EF60450CEF200004FF08051C1
:103400000160BFF34F8FBFF36F8F10BD80B582B0E7
:10341000002045F2CC2C009042F6AD60C2F2000CC8
:10342000C0F6000017A180220023CDF804C000F0F0
:10343000F9F8411C20D001281CD14FF0500080F336
:103440001188BFF36F8FBFF34F8F45F2D420C2F2C4
:1034500000004FF0FF31016045F2F020C2F20000A1
:103460000121016045F22430C2F200000021016018
:1034700000F06AF802B080BDEFF3108072B600BFB2
:10348000FEE700BF49444C450000000045F2902093
:10349000C2F20000016801310160704710B545F2C9
:1034A0009020C2F20000006830B145F22830C2F22C
:1034B00000000121016010BD45F22830C2F2000079
:1034C000002140F2DC140160C2F200042068006BAD
:1034D0000168B1F1A53F0BD14168B1F1A53F07D11A
:1034E0008168B1F1A53F03D1C068B0F1A53F04D018
:1034F000206821683431FFF797FE45F29820C2F228
:1035000000000068B0FA80F0C0B2C0F11F0040F2C5
:10351000EC1100EB8000C2F2000151F8202072B1E2
:1035200001EB800050F8041F4968021D91420160C0
:1035300001D1496801600068C068206010BDEFF3E8
:10354000108072B6FEE7000082B04EF20040CEF26C
:1035500000004CF27021C4F20F11D0F800294B1C6E
:103560009A4204D1EFF3108072B600BFFEE7D0F8A4
:1035700000298A4203D1EFF3108072B6FEE701788A
:1035800045F278220191FF2101700178C2F2000218
:103590008DF803109DF8031001F05001117045F2F1
:1035A0007C21C2F2000107220A609DF90320B2F1DA
:1035B000FF3F0CDC0A6800BF9DF80330013A5B0056
:1035C0008DF803309DF90330002BF5D40A600A68AA
:1035D0004FF4E06303EA02220A6001990170D0F817
:1035E000201941F47001C0F82019D0F8201941F0D9
:1035F0007041C0F82019FFF7CDFE40F20C00C2F276
:10360000000000210160FFF755FE4EF63470CEF247
:103610000000016841F040410160FFF709FDFFF73C
:103620002BFD00002DE9F04383B00746900098463B
:1036300015468946FFF736FD78B106465420FFF758
:1036400031FD38B10446066354B94FF0FF3003B082
:10365000BDE8F0833046FFF769FE0024002CF4D06B
:10366000DDE90A102A46CDE90010384649464346AE
:103670000294FFF731FC2046FFF74CFB012003B01A
:10368000BDE8F0832DE9F04F81B045F29020C2F201
:103690000000006840B145F28C20C2F200000168D1
:1036A0000024013101608DE045F22430C2F20000B7
:1036B00001684E1C06601BD340F2E010C2F200000D
:1036C0000168096819B1EFF3108072B6FEE740F2A5
:1036D000E812C2F2000201681368036045F2D820C4
:1036E0001160C2F20000016801310160FFF7B0FC17
:1036F00045F2D421C2F20001086840F2DC1A864289
:10370000C2F2000A01D200244EE040F2E01BC2F2F5
:10371000000BDBF8000000240068D8B345F29829BC
:103720000127C2F200091FE0D8F82C00D9F80010D8
:1037300007FA00F21143C9F8001040F2EC1100EB57
:103740008000C2F2000101EB80002946FFF7A4FDD2
:10375000D8F82C00DAF80010C96ADBF8002088429B
:10376000106828BF3C46C0B1DBF80000C068D0F844
:103770000C80454655F8040F864210D32846FFF7C3
:1037800037FDD8F828000028CED008F11800FFF740
:103790002FFDC9E74FF0FF3005E04FF0FF3045F255
:1037A000D421C2F200010860DAF8000040F2EC1106
:1037B000C06AC2F2000100EB800051F8200001282D
:1037C00088BF012445F22830C2F2000000680028BA
:1037D00018BF0124204601B000F000B830BCBDE89D
:1037E000C08F00002DE9F04F81B045F29024C2F265
:1037F0000004206868B1FFF767FD20680138206089
:10380000206850B10024FFF77DFD204601B000F094
:103810006FB8EFF3108072B6FEE745F28420C2F273
:103820000000006800285FD045F2DC26C2F20006E6
:10383000306845F22838C2F2000898B345F298255E
:1038400040F2EC1940F2DC1A4FF0010BC2F2000515
:10385000C2F20009C2F2000AF068C76807F1180056
:10386000FFF7C6FC3C1D2046FFF7C2FCF86A29683A
:103870000BFA00F2114300EB8000296009EB800095
:103880002146FFF709FDF86ADAF80010C96A884294
:1038900028BFC8F800B030680028DDD1002F18BF5D
:1038A000FFF7D6FB45F28C24C2F2000425685DB117
:1038B000012600BFFFF7E6FE002818BFC8F8006029
:1038C000013DF7D100202060D8F8000070B14EF61D
:1038D0000450CEF200004FF0805101240160BFF38C
:1038E0004F8FBFF36F8F8EE700248CE700248AE7A9
:1038F00030BCBDE8C08F02E008C8121F08C1002A12
:10390000FAD170477047002001E001C1121F002A60
:10391000FBD170470000000000000000010203041A
:10392000060708090000000001020304A086010048
:10393000400D0300801A060000350C0040420F00C5
:1039400080841E0000093D0000127A000024F4006B
:1039500000366E010048E801006CDC028039000886
:103960000000002010000000F63800089039000820
:1039700010000020205B0000063900080000000055
:1039800000093D000100000010000000AAAAAAAA38
:040000050800018965
:00000001FF
